:020000040800F2
:100000000050002021020008270200082B020008EF
:100010009D020008A1020008E9020008000000009B
:100020000000000000000000000000003103000894
:10003000350300080000000039030008E50B000844
:100040004D0300084D0300084D0300084D03000850
:100050004D0300084D0300084D0300084D03000840
:100060004D0300084D0300084D0300084D03000830
:100070004D0300084D0300084D0300084D03000820
:100080004D0300084D0300084D0300084D03000810
:100090004D0300084D0300084D0300084D03000800
:1000A0004D0300084D0300084D0300084D030008F0
:1000B0004D0300084D0300084D0300084D030008E0
:1000C0004D0300084D0300084D0300084D030008D0
:1000D0004D0300084D0300084D0300084D030008C0
:1000E0004D0300084D0300084D0300080000000008
:1000F0000000000000000000000000000000000000
:1001000000000000000000005FF808F100B583B0B7
:1001100000F0AAF9304B314A1360314A1360314B79
:10012000314A32498B4204D21168196004330432D7
:10013000F7E72A4B1A682E4B9A4200D0FEE7284B6D
:100140001A682C4B9A42F9D1234B2B4A13602B4A45
:1001500013602B4B02E000221A600433294A9342B9
:10016000F9D3254B1B6813B9244B1B6803B1FEE779
:1001700000F086F9694601A800F022F9224C234BD1
:10018000E41AA4100025AC4214DC214C214BE41AE3
:10019000A4100025AC4213DC0099019800F0DAFDB0
:1001A00005461D4C1D4BE41AA410002C0EDC2846FD
:1001B00000F0E2F8154B53F8253098470135E2E797
:1001C000144B53F8253098470135E3E7013C134BB6
:1001D00053F824309847E8E7BABADECA0000002096
:1001E0008400002000000020641D0008880000201A
:1001F0007856341232547698880000202801002066
:10020000880000202C0100207803000878030008F3
:1002100078030008780300087803000878030008D2
:1002200008B5FFF773FF00BEFEE71EF0040F0CBF1A
:10023000EFF30880EFF309807146414A10472DE93A
:10024000F04182B004468846124B5E6B9F6B9D6AFC
:100250001B6B13F0020F03D00E4BDB6A002B0CDB81
:100260000D4800F0B5F8CDF800803B4632462946EF
:10027000204600F009F900BEFEE74BF6AB6100F046
:100280007DF90028ECD0034B4FF00042DA6202B057
:10029000BDE8F08100ED00E0CC1B000800BEFEE7E9
:1002A0001EF0040F0CBFEFF30880EFF309807146D6
:1002B000244A10472DE9F04182B004468846084B95
:1002C0005E6B9F6B9D6A074800F082F8CDF8008056
:1002D0003B4632462946204600F0D6F800BEFEE7EF
:1002E00000ED00E0DC1B00081EF0040F0CBFEFF374
:1002F0000880EFF309807146134A10472DE9F04159
:1003000082B004468846084B5E6B9F6B9D6A074827
:1003100000F05EF8CDF800803B4632462946204684
:1003200000F0B2F800BEFEE700ED00E0E81B0008B8
:1003300000BEFEE700BEFEE700BEFEE7704700001D
:100340003F020008B5020008FD02000800BEFEE7FB
:10035000641D00080000002088000020641D0008C3
:100360000000000000000000880000202C01002098
:08037000000000000000000085
:10037800FEE7000008B503460C4A12685AB10B4A5A
:100388001068033323F003030344094A934206D851
:10039800064A136008BD054A06491160EFE700F0F8
:1003A8004BFF0C2303604FF0FF30F3E78C00002075
:1003B800004C00202C01002001230360014B0B603E
:1003C800704700BF040000200FB400B583B004AB31
:1003D80053F8042B01938021064800F067FF00289A
:1003E80003DD0146034800F037F803B05DF804EB7D
:1003F80004B07047940000202DE9F04385B004460E
:100408000F4643560BB10E461EE0042528462146EA
:10041800ABBE0446384605B0BDE8F08314F9011BAD
:1004280004AA1A4402F8101C0133AB42F6D304AAFA
:100438001344002203F8102C4FF00408E946404604
:100448004946ABBE8046761B002EE3D03546102EBB
:1004580028BF10250023E8E708B5FFF7CDFF08BD42
:1004680008B500F0FDF8024A024B9A6008BD00BFCB
:100478000000000800ED00E008B500F019F908BD1B
:10048800F8B504460D4617461E462748FFF79CFF59
:1004980021682648FFF798FF61682548FFF794FF11
:1004A800A1682448FFF790FFE1682348FFF78CFF15
:1004B80021692248FFF788FF61692148FFF784FF17
:1004C800A1692048FFF780FFE1691F48FFF77CFF1B
:1004D8001E48FFF779FF29461D48FFF775FF1D4C99
:1004E800E16A1D48FFF770FF216B1C48FFF76CFF9E
:1004F800E16B1B48FFF768FF15F0800F0AD115F470
:10050800004F0CD11748FFF75FFF06991648FFF711
:100518005BFFF8BD39461548FFF756FFEFE7314650
:100528001348FFF751FFEDE7B01A0008C01A00089A
:10053800D01A0008E01A0008F01A0008001B00088A
:10054800101B0008201B0008301B0008401B000877
:100558004C1B000800ED00E05C1B00086C1B000849
:100568007C1B0008AC1B0008B41B00088C1B00088F
:100578009C1B000883691A888A4201D000207047B2
:100588000268033A012A03D80233836101207047C5
:100598000020704782B00023019300932C4A13680F
:1005A80043F4803313602A4B1B6803F40033009331
:1005B800019B01330193009B1BB9019BB3F5A06F0D
:1005C800F1D1234B1B6813F4003F06D0012300939D
:1005D800009B012B04D002B0704700230093F7E77B
:1005E8001C4B1A6842F010021A601A6822F00302C3
:1005F8001A601A6842F002021A60A3F580535A681A
:100608005A605A685A605A6842F480625A605A6856
:1006180022F47C125A605A6842F4E8125A601A6846
:1006280042F080721A600A4B1B6813F0007FFAD000
:10063800074B5A6822F003025A605A6842F00202D5
:100648005A60034B5B6803F00C03082BF9D1C2E72F
:10065800001002400020024008B5FFF79BFF08BDCC
:1006680008B5104B1A6842F001021A6059680E4A20
:100678000A405A601A6822F0847222F480321A60A2
:100688001A6822F480221A605A6822F4FE025A601C
:100698004FF41F029A60FFF7DFFF044B4FF0006230
:1006A8009A6008BD001002400000FFF800ED00E06D
:1006B8001F4B5B6803F00C03042B15D0082B17D0D5
:1006C8001BB11C4B1C4A1A6002E01A4B1A4A1A60EA
:1006D800174B5B68C3F30313184AD35CDAB21549A6
:1006E8000B68D3400B607047124B134A1A60EFE750
:1006F8000F4A53685268C3F38343023312F4803FAE
:100708000AD00B4A526812F4003F0BD00C4A02FB85
:1007180003F3084A1360DBE7094A02FB03F3054ABF
:100728001360D5E7044A02FB03F3024A1360CFE7DC
:10073800001002401C00002000127A000C0000206B
:1007480000093D0010B4012823D018B102283FD079
:1007580010BC7047072910D90F29F9D8A1F108044E
:10076800E4B22B480168A4000F23A34021EA030345
:1007780002FA04F119430160EAE7264C236889006C
:100788000F20884023EA000302FA01F1194321608F
:10079800DEE7072910D90F29DAD8A1F10800C0B27D
:1007A8001D4C216880000F23834021EA030302FACD
:1007B80000F119432160CBE7184C236889000F200A
:1007C800884023EA000302FA01F119432160BFE7D8
:1007D800072910D90F29BBD8A1F10803DBB2104CA7
:1007E80021689B000F20984021EA000002FA03F1DB
:1007F80001432160ACE70B4C236889000F20884037
:1008080023EA000302FA01F119432160A0E700BFBF
:100818000408014000080140040C0140000C01409C
:100828000410014000100140012812D010B1022824
:100838001ED07047012A06D012BB012303FA01F12A
:10084800134B19607047012303FA01F1114B19602A
:100858007047012A06D09AB9012303FA01F10E4B19
:1008680019607047012303FA01F10C4B19607047B6
:10087800012A06D022B9012303FA01F1084B1960B5
:100888007047012303FA01F1064B1960704700BF56
:100898001408014010080140140C0140100C0140DC
:1008A800141001401010014010B590B03C220021F6
:1008B80001A800F0C7FC00F033FA8DF8040000240A
:1008C80007E00134E4B200F02BFA10AB234403F83C
:1008D8003C0C10AB234413F83C3CFF2BF1D19DF8A2
:1008E80006304F2B0ED09DF807304F2B10D09DF8B7
:1008F80010304F2B12D09DF81C304F2B14D00020F5
:1009080010B010BD9DF807304B2BECD10120F7E754
:100918009DF808304B2BEAD10120F1E79DF8113002
:100928004B2BE8D10120EBE79DF81D304B2B01D074
:100938000020E5E70120E3E710B50024204606E0A3
:100948000E4800F0E1F9FFF7AFFF0134E4B20128E7
:100958000FD0022CF4D90024204601280CD0022CF8
:100968000AD8074800F0D0F9FFF79EFF0134E4B237
:10097800F3E700242046F0E710BD00BFF81C00088C
:10098800001D000870B59AB005460C462F4B01AE05
:100998000FCB07C63380562200210DF1120000F05C
:1009A80051FC22238DF81130002307E003F10E02D9
:1009B8001AA90A4402F8640C0133DBB2E85C002887
:1009C800F4D103F10E021AA90A44222102F8641C88
:1009D8005A1CD2B20E321AAD2A442C2502F8645C95
:1009E8009A1CD2B20E321AAD2A4402F8641C0333A0
:1009F800DBB209E003F10E021AAD2A4402F8641CC6
:100A08000133DBB2421CD0B2215C0029F2D103F1E0
:100A18000E021AA90A44222102F8641C5A1CD2B2F6
:100A28000E321AA90A440D2102F8641C0233DBB203
:100A38000E331AAA13440A2203F8642C01A800F002
:100A480063F9034800F0F0F81AB070BDF81B00080D
:100A5800C0CF6A0070B59AB006460D4601AC444B4B
:100A68000FCB07C4572200210DF1110000F0EAFB5B
:100A780022238DF8103054228DF8112043228DF84E
:100A8800122050228DF813208DF814302C228DF866
:100A980015208DF81630002307E003F113021AA978
:100AA8000A4402F8644C0133DBB2F45C002CF4D144
:100AB80003F113021AA90A44222102F8641C5A1CE1
:100AC800D2B213321AA90A442C2102F8641C9A1CC7
:100AD800D2B213321AA90A44382102F8641CDA1C6B
:100AE800D2B213321AA90A44302102F8641C1A1D22
:100AF800D2B213321AA90A440D2102F8641C053334
:100B0800DBB213331AAA13440A2203F8642C2646CC
:100B1800204606E001A800F0F7F8FFF7C5FE013609
:100B2800F6B2012816D0022EF4D92646204606E051
:100B3800104800F0E9F8FFF7B7FE0136F6B20128D1
:100B480001D0022EF4D90C4800F0DEF800F0E8F8E5
:100B5800287007E026462046F1E70134E4B200F0A9
:100B6800DFF828552B5DFF2BF7D11AB070BD00BFF9
:100B78005C1C0008C01C0008D01C0008034B0122A4
:100B88001A60043B4FF480321A6070470410024028
:100B98001F291CD801280BD010B1022810D070478B
:100BA8000B480368012202FA01F10B430360704706
:100BB80008480368012202FA01F10B4303607047F9
:100BC80005480368012202FA01F10B4303607047EC
:100BD800141002401C1002401810024008B50C4BBB
:100BE8001B78012B06D00B4B1B6813B198470A4B97
:100BF8001B6808BD084B1A6822F001021A601A68BF
:100C080022F002021A60083300221A60EBE700BFE4
:100C1800180100201401002010E000E0014B002220
:100C28001A60704710E000E00F4B1A6822F00102CA
:100C38001A601A6822F002021A600C4A0021116038
:100C4800043A10601A6842F001021A60064B1B68E9
:100C580013F4803FFAD0044A136823F001031360A9
:100C6800024B00221A60704710E000E018E000E034
:100C780008B51DA1D1E9000100F0B4F800F0BCFAF4
:100C8800C0B20F2825D81A4B9A6842F040029A60E1
:100C98009A6810439860164BDA68DA60DA68DA60A6
:100CA800DA68DA60DA68DA60DA68DA60DA68DA604C
:100CB800DA68DA60DA6842F00802DA60DA6842F084
:100CC8000402DA601A691A61DA6842F40052DA60DA
:100CD80008BD074B9A6842F050029A609A689A6079
:100CE800D9E700BFAFF30080000000001CC7154023
:100CF80000380140034B1B6813F0400FFAD0014B3A
:100D0800586070470038014038B50546002403E0B4
:100D1800FFF7F0FF0134E4B2285D0028F8D138BDB0
:100D28000023084A126812F0200F05D10133064A41
:100D38009342F6D1FF2000E0002010B9014B58681B
:100D4800C0B270470038014020A1070000B58DB03F
:100D58002F220021684600F075FAFFF70FFF0221E5
:100D68000846FFF715FF0E210220FFF711FF0A22A0
:100D780009210020FFF7E6FC04220A210020FFF7E2
:100D8800E1FC022211460020FFF7DCFCFFF746FFDA
:100D9800FFF76EFFFFF7D0FD0E490F48FFF7F2FD92
:100DA80004E0012202210020FFF73EFD69460B48BE
:100DB800FFF750FE0A48FFF737FF9DF82530312B23
:100DC800EFD0302BF2D1002202211046FFF72CFD84
:100DD800ECE700BF101D00081C1D0008201D0008BE
:100DE800A0860100F8B5C1F30A57A7F2FF35132D05
:100DF8000A460B46044611DC002D2ADB8C461F49A7
:100E080029410A422BD04FF4002300262B4163448A
:100E180023EA0103344619462046F8BD332D05DD83
:100E2800B5F5806F1ED011462046F8BD4FF0FF3152
:100E3800A7F2134721FA07F73842F4D00122C5F187
:100E4800330502FA05F5461928BF9B1826EA070656
:100E5800E0E7013501F0004309D00026DAE7002871
:100E6800D1D1E0E7024600F011F80446DCE743F090
:100E78007F5343F440130026CCE700BFFFFF0F0069
:100E880081F0004102E000BF83F0004330B54FEA33
:100E980041044FEA430594EA050F08BF90EA020FA0
:100EA8001FBF54EA000C55EA020C7FEA645C7FEA33
:100EB800655C00F0E2804FEA5454D4EB5555B8BF56
:100EC8006D420CDD2C4480EA020281EA030382EAC7
:100ED800000083EA010180EA020281EA0303362D59
:100EE80088BF30BD11F0004F4FEA01314FF4801C2C
:100EF8004CEA113102D0404261EB410113F0004F3E
:100F08004FEA03334CEA133302D0524263EB4303F4
:100F180094EA050F00F0A780A4F10104D5F1200E92
:100F28000DDB02FA0EFC22FA05F2801841F10001ED
:100F380003FA0EF2801843FA05F359410EE0A5F1C1
:100F480020050EF1200E012A03FA0EFC28BF4CF0F2
:100F5800020C43FA05F3C01851EBE37101F00045A8
:100F680007D54FF0000EDCF1000C7EEB00006EEBB5
:100F78000101B1F5801F1BD3B1F5001F0CD349083F
:100F88005FEA30004FEA3C0C04F101044FEA445296
:100F980012F5800F80F09A80BCF1004F08BF5FEA1D
:100FA800500C50F1000041EB045141EA050130BDFD
:100FB8005FEA4C0C404141EB010111F4801FA4F1A0
:100FC8000104E9D191F0000F04BF01460020B1FAF5
:100FD80081F308BF2033A3F10B03B3F120020CDA2D
:100FE8000C3208DD02F1140CC2F10C0201FA0CF00B
:100FF80021FA02F10CE002F11402D8BFC2F1200C70
:1010080001FA02F120FA0CFCDCBF41EA0C01904025
:10101800E41AA2BF01EB0451294330BD6FEA04046E
:101028001F3C1CDA0C340EDC04F11404C4F1200259
:1010380020FA04F001FA02F340EA030021FA04F36B
:1010480045EA030130BDC4F10C04C4F1200220FAC2
:1010580002F001FA04F340EA0300294630BD21FA00
:1010680004F0294630BD94F0000F83F4801306BFC6
:1010780081F480110134013D4EE77FEA645C18BFBA
:101088007FEA655C29D094EA050F08BF90EA020F51
:1010980005D054EA000C04BF1946104630BD91EA49
:1010A800030F1EBF0021002030BD5FEA545C05D14C
:1010B8004000494128BF41F0004130BD14F580048B
:1010C8003CBF01F5801130BD01F0004545F0FE41FF
:1010D80041F470014FF0000030BD7FEA645C1ABF34
:1010E800194610467FEA655C1CBF0B46024650EA6B
:1010F800013406BF52EA033591EA030F41F4002197
:1011080030BD00BF90F0000F04BF0021704730B51C
:101118004FF4806404F132044FF000054FF00001F1
:1011280050E700BF90F0000F04BF0021704730B5B2
:101138004FF4806404F1320410F0004548BF404287
:101148004FF000013EE700BF42004FEAE2014FEADC
:1011580031014FEA02701FBF12F07F4393F07F4FB7
:1011680081F06051704732F07F4208BF704793F0BA
:101178007F4F04BF41F40021704730B54FF46074CD
:1011880001F0004521F000411CE700BF50EA0102D0
:1011980008BF704730B54FF000050AE050EA010279
:1011A80008BF704730B511F0004502D5404261EBE9
:1011B80041014FF4806404F132045FEA915C3FF42A
:1011C800D8AE4FF003025FEADC0C18BF03325FEAC7
:1011D800DC0C18BF033202EBDC02C2F1200300FA78
:1011E80003FC20FA02F001FA03FE40EA0E0021FA9D
:1011F80002F11444BDE600BF4A0011D212F50012F4
:1012080011D20DD56FF47873B3EB62520ED44FEA56
:10121800C12343F0004343EA505323FA02F07047D6
:101228004FF00000704750EA013002D14FF0FF3014
:1012380070474FF000007047014B1868704700BFB7
:101248002000002003460244934200D1704703F86F
:10125800011BF9E730B5141E05469BB0184605DAA0
:101268008B234FF0FF302B601BB030BD4FF402735F
:10127800ADF80C300CBF234604F1FF3302930593FD
:101288004FF6FF7300910491ADF80E3002461E9B95
:101298006946284600F072F8431CBCBF8B232B60BC
:1012A800002CE1D00022009B1A70DDE707B50093FF
:1012B80013460A46014603480068FFF7CBFF03B010
:1012C8005DF804FB200000202DE9F0478E68824677
:1012D8009E420C469046994637D88A8912F4906FF8
:1012E80031D00223256809696F1A656905EB450540
:1012F80095FBF3F509F101033B449D4238BF1D46B8
:10130800530530D5294600F035FB064650B90C2365
:101318004FF0FF30CAF80030A38943F04003A3819F
:10132800BDE8F0873A46216900F0B4FAA38923F4AE
:10133800906343F08003A38126613E4426604E46B5
:101348006561ED1BA5604E4500D94E4632464146C3
:10135800206800F0AAFAA36800209B1BA3602368FA
:101368001E442660DCE72A4600F05EFB064600289D
:10137800E2D12169504600F0B1FAC8E72DE9F04FF3
:101388009DB003938B8980461D060C4616460FD5E3
:101398000B696BB9402100F0EDFA2060206128B993
:1013A8000C23C8F800304FF0FF30C7E040236361DA
:1013B8000023099320238DF8293030234FF0010BA7
:1013C8008DF82A3037463D4615F8013B0BB1252BE1
:1013D8003ED1B7EB060A0BD053463246214640466B
:1013E800FFF772FF013000F0A480099B5344099372
:1013F8003B78002B00F09D8000234FF0FF32CDE9B1
:101408000523049307938DF853301A932F4605222A
:1014180017F8011B4F4800F02FFA049BD0B9D906E2
:1014280044BF20228DF853201A0744BF2B228DF881
:1014380053202A782A2A15D02F4600200A25079AF1
:10144800394611F8013B303B092B4DD9B8B10FE0B3
:101458002F46B8E73F4A3D46801A0BFA00F018437A
:101468000490D3E7039A111D12680391002A01DB47
:10147800079204E0524243F00203079204933B7838
:101488002E2B0CD17B782A2B33D1039B02371A1DC4
:101498001B680392002BB8BF4FF0FF3305932E4D06
:1014A80003223978284600F0E7F938B14023401B79
:1014B80003FA00F0049B01370343049339780622AA
:1014C80026487E1C8DF8281000F0D6F9002838D060
:1014D800234B13BB039B073323F007030833039302
:1014E800099B4B4409936DE705FB023201200F4627
:1014F800A6E700230A25194601370593384610F850
:10150800012B303A092A03D9002BC8D00591C6E728
:1015180005FB012101230746F0E703AB00932246B0
:10152800104B04A94046AFF30080B0F1FF3F81465D
:10153800D6D1A3895B063FF536AF09981DB0BDE843
:10154800F08F03AB00932246064B04A9404600F0F7
:1015580081F8EAE7301D0008361D00083A1D00082A
:1015680000000000D11200082DE9F04791461F46FF
:101578008A680B6906469342B8BF1346C9F800301B
:1015880091F843200C46DDF8208012B10133C9F8E8
:1015980000302368990642BFD9F800300233C9F8F1
:1015A8000030256815F0060507D104F1190AE3682B
:1015B800D9F800209B1AAB4229DC94F84330226802
:1015C800003318BF012392062ED404F14302394692
:1015D8003046C047013021D02368E56803F0060390
:1015E800042B18BF0025D9F800204FF0000908BFC8
:1015F800AD1AA368226908BF25EAE5759342C4BFFE
:101608009B1AED181A344D451AD1002008E0012321
:10161800524639463046C047013003D14FF0FF30BB
:10162800BDE8F0870135C2E73020E11881F84300B2
:101638005A1C94F845102244023382F84310C4E738
:101648000123224639463046C0470130E6D009F129
:101658000109D8E72DE9F04301F1430C0C46097E56
:1016680085B06E291746064698460C9A00F0B38056
:1016780022D8632936D00AD8002900F0B980582921
:1016880000F0838004F1420584F8421032E06429B6
:1016980001D06929F6D120681368050603F1040111
:1016A8002AD51B681160002B03DA2D225B4284F8CF
:1016B80043206F480A2239E0732900F09D8008D83A
:1016C8006F2920D07029DDD1236843F020032360DF
:1016D80003E0752917D07829D4D17823654884F890
:1016E800453055E0136804F14205191D1B68116067
:1016F80084F8423001238CE01B6810F0400F116021
:1017080018BF1BB2CFE713682568181D106028069C
:1017180001D51B6802E06806FBD51B886F2914BF3A
:101728000A2208225248002184F843106568002DD7
:10173800A560C0F29580216821F004012160002B8A
:101748003DD1002D40F08E806546082A0BD12368D4
:10175800DB0708D5236962689A42DEBF302305F8A3
:10176800013C05F1FF35ACEB05032361CDF80080A2
:101778003B4603AA21463046FFF7F6FE01304DD11D
:101788004FF0FF3005B0BDE8F083394884F84510C4
:10179800136821681D1D1B6815600A060BD5CA074A
:1017A80044BF41F0200121601BB9226822F02002C9
:1017B80022601022B7E74D0648BF9BB2EFE76546A7
:1017C800B3FBF2F102FB1133C35C05F8013D0B4694
:1017D8000029F5D1B9E713682568181D61691060FB
:1017E80028061B6801D5196002E06A06FBD5198036
:1017F800002365462361B9E71368191D11601D6848
:1018080062680021284600F037F808B1401B606084
:1018180063682361002384F84330A7E723692A46D5
:1018280039463046C0470130AAD023689B0713D4F5
:10183800E068039B9842B8BF1846A3E701234A46CD
:1018480039463046C04701309AD00135E368039ADB
:101858009B1AAB42F2DCEBE7002504F11909F5E726
:10186800002BACD1037804F1420584F842306CE7D0
:10187800411D0008521D000810B5C9B2024490422B
:10188800034601D1002303E01C7801308C42F6D1D5
:10189800184610BD10B5431E0A44914200D110BD30
:1018A80011F8014B03F8014FF7E7884210B501EB37
:1018B800020307D8421E99420AD011F8014B02F8D8
:1018C800014FF8E78342F5D98118D21AD34200D1E3
:1018D80010BD13F8014D01F8014DF7E738B505467D
:1018E800002943D051F8043C0C1F002BB8BFE41862
:1018F80000F0D0F81E4A1368104633B963601460CC
:101908002846BDE8384000F0C6B8A3420BD9216884
:101918006218934201BF1A685B68521822606360BC
:101928000460EDE713465A680AB1A242FAD9196869
:101938005818A0420BD120680144581882421960F7
:10194800DED110685268014419605A60D8E702D99C
:101958000C232B60D4E7206821188A4201BF116844
:1019680052680918216062605C60C9E738BD00BF31
:101978001C01002070B5CD1C25F0030508350C2D81
:1019880038BF0C25002D064601DBA94203D90C23DC
:101998003360002070BD00F07DF8214A14682146AC
:1019A80091B9204C23681BB9304600F063F82060D9
:1019B8002946304600F05EF8431C24D10C233046FB
:1019C800336000F068F8E4E70B685B1B18D40B2B56
:1019D8000FD90B60CC18CD50304600F05CF804F1FC
:1019E8000B00231D20F00700C31AD3D05A42E2503F
:1019F800D0E74B688C4216BF636013600C46EBE778
:101A08000C464968CCE7C41C24F00304A04205D066
:101A1800211A304600F02EF80130CFD02560DBE7E0
:101A28001C01002020010020F8B5074614460E4688
:101A380021B9BDE8F8401146FFF79CBF22B9FFF76E
:101A48004DFF25462846F8BD00F026F8A0420FD2E3
:101A580021463846FFF78EFF05460028F2D031466A
:101A68002246FFF717FF31463846FFF737FFE9E709
:101A78003546E7E738B50023054C05460846236098
:101A8800FEF778FC431C02D1236803B12B6038BDF4
:101A9800240100207047704751F8043C181F002BA0
:101AA800BCBF0B58C0187047537461636B206672D3
:101AB800616D653A0A000000205230203D20202543
:101AC8003038580A00000000205231203D202025DF
:101AD8003038580A00000000205232203D202025CE
:101AE8003038580A00000000205233203D202025BD
:101AF8003038580A0000000020523132203D20259D
:101B08003038580A00000000204C52203D20202583
:101B18003038580A00000000205043203D2020257E
:101B28003038580A0000000020505352203D20252C
:101B38003038580A000000004653522F4641523AA6
:101B48000A0000002043465352203D20202530380B
:101B5800580A00002048465352203D20202530389E
:101B6800580A00002044465352203D202025303892
:101B7800580A00002041465352203D202025303885
:101B8800580A0000204D4D464152203D202530384E
:101B9800580A00002042464152203D202025303876
:101BA800580A00004D6973630A000000204C522F48
:101BB8004558435F52455455524E3D2025303858BC
:101BC8000A0000005B486172644661756C745D0AC6
:101BD800000000005B4275734661756C745D0A0015
:101BE8005B55736167654661756C745D0A0000003A
:101BF80041542B43574A41505F4355523D00000022
:101C080000000000000000000000000000000000CC
:101C180000000000000000000000000000000000BC
:101C280000000000000000000000000000000000AC
:101C3800000000000000000000000000000000009C
:101C4800000000000000000000000000000000008C
:101C58000000000041542B43495053544152543D15
:101C6800000000000000000000000000000000006C
:101C7800000000000000000000000000000000005C
:101C8800000000000000000000000000000000004C
:101C9800000000000000000000000000000000003C
:101CA800000000000000000000000000000000002C
:101CB800000000000000000041542B4349505345E8
:101CC8004E443D33390D0A004745542068747470FA
:101CD8003A2F2F696F742E667265656F64612E6383
:101CE8006F6D2F7374617475732E7478740D0A0098
:101CF800415445300D0A000041542B43574D4F4481
:101D0800453D310D0A000000676F673132333435C5
:101D180000000000616263003136322E3235332E06
:101D28003135352E32323700232D302B2000686CA8
:101D38004C006566674546470030313233343536E6
:101D4800373839414243444546003031323334351F
:0B1D580036373839616263646566004D
:101D640078563412900000200000000000000000AB
:101D740000000000010203040607080900A24A0447
:101D8400240000200000000000000000000000000B
:101D9400000000000000000000000000000000003F
:101DA400000000000000000000000000000000002F
:101DB400000000000000000000000000000000001F
:101DC400000000000000000000000000000000000F
:101DD40000000000000000000000000000000000FF
:081DE400000000003254769863
:040000050800010DE1
:00000001FF
