:020000040800F2
:100000000050002021020008270200082B020008EF
:100010009D020008A1020008E9020008000000009B
:100020000000000000000000000000003103000894
:100030003503000800000000390300089909000892
:100040004D0300084D0300084D0300084D03000850
:100050004D0300084D0300084D0300084D03000840
:100060004D0300084D0300084D0300084D03000830
:100070004D0300084D0300084D0300084D03000820
:100080004D0300084D0300084D0300084D03000810
:100090004D0300084D0300084D0300084D03000800
:1000A0004D0300084D0300084D0300084D030008F0
:1000B0004D0300084D0300084D0300084D030008E0
:1000C0004D0300084D0300084D0300081109000806
:1000D0004D0300084D0300084D0300084D030008C0
:1000E0004D0300084D0300084D0300080000000008
:1000F0000000000000000000000000000000000000
:1001000000000000000000005FF808F100B583B0B7
:1001100000F0AAF9304B314A1360314A1360314B79
:10012000314A32498B4204D21168196004330432D7
:10013000F7E72A4B1A682E4B9A4200D0FEE7284B6D
:100140001A682C4B9A42F9D1234B2B4A13602B4A45
:1001500013602B4B02E000221A600433294A9342B9
:10016000F9D3254B1B6813B9244B1B6803B1FEE779
:1001700000F086F9694601A800F022F9224C234BD1
:10018000E41AA4100025AC4214DC214C214BE41AE3
:10019000A4100025AC4213DC0099019800F0D6FCB5
:1001A00005461D4C1D4BE41AA410002C0EDC2846FD
:1001B00000F0E2F8154B53F8253098470135E2E797
:1001C000144B53F8253098470135E3E7013C134BB6
:1001D00053F824309847E8E7BABADECA0000002096
:1001E000840000200000002080B500088800002066
:1001F0007856341232547698880000202C01002062
:1002000088000020300100207803000878030008EF
:1002100078030008780300087803000878030008D2
:1002200008B5FFF773FF00BEFEE71EF0040F0CBF1A
:10023000EFF30880EFF309807146414A10472DE93A
:10024000F04182B004468846124B5E6B9F6B9D6AFC
:100250001B6B13F0020F03D00E4BDB6A002B0CDB81
:100260000D4800F0B5F8CDF800803B4632462946EF
:10027000204600F009F900BEFEE74BF6AB6100F046
:100280007DF90028ECD0034B4FF00042DA6202B057
:10029000BDE8F08100ED00E02015000800BEFEE79B
:1002A0001EF0040F0CBFEFF30880EFF309807146D6
:1002B000244A10472DE9F04182B004468846084B95
:1002C0005E6B9F6B9D6A074800F082F8CDF8008056
:1002D0003B4632462946204600F0D6F800BEFEE7EF
:1002E00000ED00E0301500081EF0040F0CBFEFF326
:1002F0000880EFF309807146134A10472DE9F04159
:1003000082B004468846084B5E6B9F6B9D6A074827
:1003100000F05EF8CDF800803B4632462946204684
:1003200000F0B2F800BEFEE700ED00E03C1500086A
:1003300000BEFEE700BEFEE700BEFEE7704700001D
:100340003F020008B5020008FD02000800BEFEE7FB
:1003500080B50008000000208800002080B500085B
:100360000000000000000000880000203001002094
:08037000000000000000000085
:10037800FEE7000008B503460C4A12685AB10B4A5A
:100388001068033323F003030344094A934206D851
:10039800064A136008BD054A06491160EFE700F0F8
:1003A800FDFB0C2303604FF0FF30F3E78C000020C7
:1003B800004C00203001002001230360014B0B603A
:1003C800704700BF040000200FB400B583B004AB31
:1003D80053F8042B01938021064800F011FC0028F3
:1003E80003DD0146034800F037F803B05DF804EB7D
:1003F80004B07047940000202DE9F04385B004460E
:100408000F4643560BB10E461EE0042528462146EA
:10041800ABBE0446384605B0BDE8F08314F9011BAD
:1004280004AA1A4402F8101C0133AB42F6D304AAFA
:100438001344002203F8102C4FF00408E946404604
:100448004946ABBE8046761B002EE3D03546102EBB
:1004580028BF10250023E8E708B5FFF7CDFF08BD42
:1004680008B500F0FDF8024A024B9A6008BD00BFCB
:100478000000000800ED00E008B500F019F908BD1B
:10048800F8B504460D4617461E462748FFF79CFF59
:1004980021682648FFF798FF61682548FFF794FF11
:1004A800A1682448FFF790FFE1682348FFF78CFF15
:1004B80021692248FFF788FF61692148FFF784FF17
:1004C800A1692048FFF780FFE1691F48FFF77CFF1B
:1004D8001E48FFF779FF29461D48FFF775FF1D4C99
:1004E800E16A1D48FFF770FF216B1C48FFF76CFF9E
:1004F800E16B1B48FFF768FF15F0800F0AD115F470
:10050800004F0CD11748FFF75FFF06991648FFF711
:100518005BFFF8BD39461548FFF756FFEFE7314650
:100528001348FFF751FFEDE70414000814140008FE
:100538002414000834140008441400085414000853
:100548006414000874140008841400089414000843
:10055800A014000800ED00E0B0140008C014000862
:10056800D01400080015000808150008E014000859
:10057800F014000883691A888A4201D00020704765
:100588000268033A012A03D80233836101207047C5
:100598000020704782B00023019300932C4A13680F
:1005A80043F4803313602A4B1B6803F40033009331
:1005B800019B01330193009B1BB9019BB3F5A06F0D
:1005C800F1D1234B1B6813F4003F06D0012300939D
:1005D800009B012B04D002B0704700230093F7E77B
:1005E8001C4B1A6842F010021A601A6822F00302C3
:1005F8001A601A6842F002021A60A3F580535A681A
:100608005A605A685A605A6842F480625A605A6856
:1006180022F47C125A605A6842F4E8125A601A6846
:1006280042F080721A600A4B1B6813F0007FFAD000
:10063800074B5A6822F003025A605A6842F00202D5
:100648005A60034B5B6803F00C03082BF9D1C2E72F
:10065800001002400020024008B5FFF79BFF08BDCC
:1006680008B5104B1A6842F001021A6059680E4A20
:100678000A405A601A6822F0847222F480321A60A2
:100688001A6822F480221A605A6822F4FE025A601C
:100698004FF41F029A60FFF7DFFF044B4FF0006230
:1006A8009A6008BD001002400000FFF800ED00E06D
:1006B8001F4B5B6803F00C03042B15D0082B17D0D5
:1006C8001BB11C4B1C4A1A6002E01A4B1A4A1A60EA
:1006D800174B5B68C3F30313184AD35CDAB21549A6
:1006E8000B68D3400B607047124B134A1A60EFE750
:1006F8000F4A53685268C3F38343023312F4803FAE
:100708000AD00B4A526812F4003F0BD00C4A02FB85
:1007180003F3084A1360DBE7094A02FB03F3054ABF
:100728001360D5E7044A02FB03F3024A1360CFE7DC
:10073800001002401C00002000127A000C0000206B
:1007480000093D0010B4012823D018B102283FD079
:1007580010BC7047072910D90F29F9D8A1F108044E
:10076800E4B22B480168A4000F23A34021EA030345
:1007780002FA04F119430160EAE7264C236889006C
:100788000F20884023EA000302FA01F1194321608F
:10079800DEE7072910D90F29DAD8A1F10800C0B27D
:1007A8001D4C216880000F23834021EA030302FACD
:1007B80000F119432160CBE7184C236889000F200A
:1007C800884023EA000302FA01F119432160BFE7D8
:1007D800072910D90F29BBD8A1F10803DBB2104CA7
:1007E80021689B000F20984021EA000002FA03F1DB
:1007F80001432160ACE70B4C236889000F20884037
:1008080023EA000302FA01F119432160A0E700BFBF
:100818000408014000080140040C0140000C01409C
:100828000410014000100140012812D010B1022824
:100838001ED07047012A06D012BB012303FA01F12A
:10084800134B19607047012303FA01F1114B19602A
:100858007047012A06D09AB9012303FA01F10E4B19
:1008680019607047012303FA01F10C4B19607047B6
:10087800012A06D022B9012303FA01F1084B1960B5
:100888007047012303FA01F1064B1960704700BF56
:100898001408014010080140140C0140100C0140DC
:1008A8001410014010100140034B01221A60043B50
:1008B8004FF480321A607047041002401F291CD878
:1008C80001280BD010B1022810D070470B480368DC
:1008D800012202FA01F10B430360704708480368DC
:1008E800012202FA01F10B430360704705480368CF
:1008F800012202FA01F10B43036070471410024011
:100908001C1002401810024008B5034BD868034B6E
:100918001B68C0B2984708BD00300140280100207C
:100928000D4B4FF440721A601A681A601A681A6000
:100938001A681A601A6842F004021A601A6842F0CB
:1009480002021A601A6842F001021A601A6842F03C
:1009580040021A60704700BF0030014038B50546B4
:100968000C46002211461046FFF75EFF074BDD607C
:10097800064B9B6813F0800FFAD1044BDB68237099
:10098800012200210846FFF74FFF38BD0030014023
:1009980008B50C4B1B78012B06D00B4B1B6813B109
:1009A80098470A4B1B6808BD084B1A6822F00102D9
:1009B8001A601A6822F002021A60083300221A60CC
:1009C800EBE700BF180100201401002010E000E050
:1009D800014B00221A60704710E000E00F4B1A68C4
:1009E80022F001021A601A6822F002021A600C4A08
:1009F80000211160043A10601A6842F001021A607E
:100A0800064B1B6813F4803FFAD0044A136823F09E
:100A180001031360024B00221A60704710E000E0E7
:100A280018E000E010B582B004460122022100203F
:100A3800FFF7FAFE0DF107012046FFF78FFF02B01E
:100A480010BD10B582B00446002202211046FFF7FF
:100A5800EBFE0DF107012046FFF780FF02B010BD45
:100A680008B5012211460020FFF7DEFE6420FFF7DB
:100A7800B5FF002201211046FFF7D6FE0120FFF73F
:100A8800ADFF012211460020FFF7CEFE6420FFF7DC
:100A9800A5FF002201211046FFF7C6FE6420FFF7DC
:100AA8009DFF012211460020FFF7BEFE0948FFF70F
:100AB80095FF1120FFF7C5FF0748FFF78FFF3A2082
:100AC800FFF7BFFF0520FFF7ADFF2920FFF7B9FFAC
:100AD80008BD00BFC0D40100F049020038B5054682
:100AE8002A20FFF7AEFF0020FFF79CFF0020FFF74A
:100AF80099FF0020FFF796FF7F20FFF793FF2B2039
:100B0800FFF79FFF0020FFF78DFF0020FFF78AFF08
:100B18000020FFF787FF9F20FFF784FF2C20FFF7B7
:100B280090FF00240AE035F81400000AFFF77AFF66
:100B380015F81400FFF776FF0134A4B2B4F5A04FFE
:100B4800F1D338BD08B5FFF7AFFE02210846FFF71D
:100B5800B5FE0C210220FFF7B1FE02220121002080
:100B6800FFF7F0FD022211460020FFF7EBFD0922F6
:100B780005210020FFF7E6FD092207210020FFF7E5
:100B8800E1FDFFF725FFFFF7CBFEFFF769FF0248FE
:100B9800FFF7A4FFFEE700BF4C150008014B1868DB
:100BA800704700BF2000002030B5141E05469BB0DA
:100BB800184605DA8B234FF0FF302B601BB030BD91
:100BC8004FF40273ADF80C300CBF234604F1FF3329
:100BD800029305934FF6FF7300910491ADF80E3020
:100BE80002461E9B6946284600F072F8431CBCBFAB
:100BF8008B232B60002CE1D00022009B1A70DDE7CC
:100C080007B5009313460A46014603480068FFF7F4
:100C1800CBFF03B05DF804FB200000202DE9F0476E
:100C28008E6882469E420C469046994637D88A89F5
:100C380012F4906F31D00223256809696F1A65692B
:100C480005EB450595FBF3F509F101033B449D428E
:100C580038BF1D46530530D5294600F035FB0646FA
:100C680050B90C234FF0FF30CAF80030A38943F085
:100C78004003A381BDE8F0873A46216900F0B4FA41
:100C8800A38923F4906343F08003A38126613E4443
:100C980026604E466561ED1BA5604E4500D94E465F
:100CA80032464146206800F0AAFAA36800209B1B40
:100CB800A36023681E442660DCE72A4600F05EFB3A
:100CC80006460028E2D12169504600F0B1FAC8E78B
:100CD8002DE9F04F9DB003938B8980461D060C4685
:100CE80016460FD50B696BB9402100F0EDFA20606C
:100CF800206128B90C23C8F800304FF0FF30C7E056
:100D0800402363610023099320238DF82930302381
:100D18004FF0010B8DF82A3037463D4615F8013B58
:100D28000BB1252B3ED1B7EB060A0BD05346324602
:100D380021464046FFF772FF013000F0A480099B6E
:100D4800534409933B78002B00F09D8000234FF01B
:100D5800FF32CDE90523049307938DF853301A9396
:100D68002F46052217F8011B4F4800F02FFA049B65
:100D7800D0B9D90644BF20228DF853201A0744BFA2
:100D88002B228DF853202A782A2A15D02F460020A6
:100D98000A25079A394611F8013B303B092B4DD9F2
:100DA800B8B10FE02F46B8E73F4A3D46801A0BFA24
:100DB80000F018430490D3E7039A111D12680391B9
:100DC800002A01DB079204E0524243F00203079233
:100DD80004933B782E2B0CD17B782A2B33D1039BA1
:100DE80002371A1D1B680392002BB8BF4FF0FF3360
:100DF80005932E4D03223978284600F0E7F938B1DB
:100E08004023401B03FA00F0049B0137034304937B
:100E18003978062226487E1C8DF8281000F0D6F96D
:100E2800002838D0234B13BB039B073323F0070359
:100E380008330393099B4B4409936DE705FB023282
:100E480001200F46A6E700230A2519460137059316
:100E5800384610F8012B303A092A03D9002BC8D09C
:100E68000591C6E705FB012101230746F0E703AB1F
:100E780000932246104B04A94046AFF30080B0F11E
:100E8800FF3F8146D6D1A3895B063FF536AF099867
:100E98001DB0BDE8F08F03AB00932246064B04A9B2
:100EA800404600F081F8EAE74CB5000852B5000862
:100EB80056B5000800000000250C00082DE9F04791
:100EC80091461F468A680B6906469342B8BF134687
:100ED800C9F8003091F843200C46DDF8208012B1A3
:100EE8000133C9F800302368990642BFD9F80030A9
:100EF8000233C9F80030256815F0060507D104F15A
:100F0800190AE368D9F800209B1AAB4229DC94F847
:100F180043302268003318BF012392062ED404F10F
:100F2800430239463046C047013021D02368E5687E
:100F380003F00603042B18BF0025D9F800204FF052
:100F4800000908BFAD1AA368226908BF25EAE5753C
:100F58009342C4BF9B1AED181A344D451AD100208C
:100F680008E00123524639463046C047013003D1D4
:100F78004FF0FF30BDE8F0870135C2E73020E118B7
:100F880081F843005A1C94F845102244023382F831
:100F98004310C4E70123224639463046C047013092
:100FA800E6D009F10109D8E72DE9F04301F1430C36
:100FB8000C46097E85B06E291746064698460C9A57
:100FC80000F0B38022D8632936D00AD8002900F06F
:100FD800B980582900F0838004F1420584F8421052
:100FE80032E0642901D06929F6D120681368050622
:100FF80003F104012AD51B681160002B03DA2D22A6
:101008005B4284F843206F480A2239E0732900F0D4
:101018009D8008D86F2920D07029DDD1236843F03E
:101028002003236003E0752917D07829D4D17823C9
:10103800654884F8453055E0136804F14205191DE8
:101048001B68116084F8423001238CE01B6810F0A3
:10105800400F116018BF1BB2CFE713682568181D31
:101068001060280601D51B6802E06806FBD51B88BE
:101078006F2914BF0A2208225248002184F843101D
:101088006568002DA560C0F29580216821F00401F3
:101098002160002B3DD1002D40F08E806546082A46
:1010A8000BD12368DB0708D5236962689A42DEBF43
:1010B800302305F8013C05F1FF35ACEB050323614E
:1010C800CDF800803B4603AA21463046FFF7F6FEDE
:1010D80001304DD14FF0FF3005B0BDE8F0833948FD
:1010E80084F84510136821681D1D1B6815600A06E1
:1010F8000BD5CA0744BF41F0200121601BB9226803
:1011080022F0200222601022B7E74D0648BF9BB2AA
:10111800EFE76546B3FBF2F102FB1133C35C05F858
:10112800013D0B460029F5D1B9E713682568181D5C
:101138006169106028061B6801D5196002E06A061B
:10114800FBD51980002365462361B9E71368191D8B
:1011580011601D6862680021284600F037F808B160
:10116800401B606063682361002384F84330A7E76D
:1011780023692A4639463046C0470130AAD0236839
:101188009B0713D4E068039B9842B8BF1846A3E7AF
:1011980001234A4639463046C04701309AD00135C6
:1011A800E368039A9B1AAB42F2DCEBE7002504F1F3
:1011B8001909F5E7002BACD1037804F1420584F84E
:1011C80042306CE75DB500086EB5000810B5C9B2CD
:1011D80002449042034601D1002303E01C78013009
:1011E8008C42F6D1184610BD10B5431E0A449142F0
:1011F80000D110BD11F8014B03F8014FF7E7884201
:1012080010B501EB020307D8421E99420AD011F823
:10121800014B02F8014FF8E78342F5D98118D21A39
:10122800D34200D110BD13F8014D01F8014DF7E785
:1012380038B50546002943D051F8043C0C1F002B53
:10124800B8BFE41800F0D0F81E4A1368104633B946
:10125800636014602846BDE8384000F0C6B8A34271
:101268000BD921686218934201BF1A685B6852184B
:10127800226063600460EDE713465A680AB1A2422F
:10128800FAD919685818A0420BD120680144581897
:1012980082421960DED110685268014419605A60B0
:1012A800D8E702D90C232B60D4E7206821188A429A
:1012B80001BF116852680918216062605C60C9E763
:1012C80038BD00BF1C01002070B5CD1C25F00305FA
:1012D80008350C2D38BF0C25002D064601DBA94228
:1012E80003D90C233360002070BD00F07DF8214A3B
:1012F8001468214691B9204C23681BB9304600F088
:1013080063F820602946304600F05EF8431C24D17B
:101318000C233046336000F068F8E4E70B685B1B89
:1013280018D40B2B0FD90B60CC18CD50304600F0D9
:101338005CF804F10B00231D20F00700C31AD3D07A
:101348005A42E250D0E74B688C4216BF6360136084
:101358000C46EBE70C464968CCE7C41C24F00304B0
:10136800A04205D0211A304600F02EF80130CFD027
:101378002560DBE71C01002020010020F8B50746A6
:1013880014460E4621B9BDE8F8401146FFF79CBF48
:1013980022B9FFF74DFF25462846F8BD00F026F88C
:1013A800A0420FD221463846FFF78EFF0546002897
:1013B800F2D031462246FFF717FF31463846FFF78D
:1013C80037FFE9E73546E7E738B50023054C05461A
:1013D80008462360FEF7CEFF431C02D1236803B101
:1013E8002B6038BD240100207047704751F8043C39
:1013F800181F002BBCBF0B58C0187047537461638B
:101408006B206672616D653A0A0000002052302038
:101418003D2020253038580A000000002052312095
:101428003D2020253038580A000000002052322084
:101438003D2020253038580A000000002052332073
:101448003D2020253038580A000000002052313253
:10145800203D20253038580A00000000204C52203A
:101468003D2020253038580A000000002050432035
:101478003D2020253038580A0000000020505352E3
:10148800203D20253038580A000000004653522FCE
:101498004641523A0A0000002043465352203D205C
:1014A80020253038580A00002048465352203D2055
:1014B80020253038580A00002044465352203D2049
:1014C80020253038580A00002041465352203D203C
:1014D80020253038580A0000204D4D464152203D05
:1014E80020253038580A00002042464152203D202D
:1014F80020253038580A00004D6973630A0000003F
:10150800204C522F4558435F52455455524E3D206A
:10151800253038580A0000005B48617264466175DE
:101528006C745D0A000000005B4275734661756C5F
:10153800745D0A005B55736167654661756C745D1F
:101548000A000000DEFFDEFFDEFFDEFFDEFFDEFF5B
:10155800DEFFDEFFDEFFDEFFDEFFDEFFDEFFDEFF9B
:10156800DEFFDEFFDEFFDEFFDEFFDEFFDEFFDEFF8B
:10157800DEFFDEFFDEFFDEFFDEFFDEFFDEFFDEFF7B
:10158800DEFFDEFFDEFFDEFFDEFFDEFFDEFFDEFF6B
:101DB800DEFFDEFFDEFFDEFFDEFFDEFFBEFFBEFF73
:101DC800BEFFDEFFDEFFDEFFDEFFDEFFDEFFDEFF43
:101DD800DEFFDEFFDEFFDEFFDEFFDEFFDEFFDEFF13
:101DE800DEFFDEFFDEFFDEFFDEFFDEFFDEFFDEFF03
:101DF800DEFFDEFFDEFFDEFFDEFFDEFFDEFFDEFFF3
:101E0800DEFFDEFFDEFFDEFFDEFFDEFFDEFFDEFFE2
:1020B800DEFFDEFFBEFFBEFFDEFFDEFFDEFFDEFF70
:1020C800BEFFBEFFDEFFDEFFDEFFDEFFDEFFDEFF60
:1020D800DEFFDEFFDEFFDEFFDEFFDEFFDEFFDEFF10
:1020E800DEFFDEFFDEFFDEFFDEFFDEFFDEFFDEFF00
:1020F800DEFFDEFFDEFFDEFFDEFFDEFFDEFFDEFFF0
:10210800DEFFDEFFDEFFDEFFDEFFDEFFDEFFDEFFDF
:1023B800DEFFDEFFDEFFDEFFBEFFBEF7BEF7BEFFBD
:1023C800DEFFDEFFDEFFDEFFDEFFDEFFDEFFDEFF1D
:1023D800DEFFDEFFDEFFDEFFDEFFDEFFDEFFDEFF0D
:1023E800DEFFDEFFDEFFDEFFDEFFDEFFDEFFDEFFFD
:1023F800DEFFDEFFDEFFDEFFDEFFDEFFDEFFDEFFED
:10240800DEFFDEFFDEFFDEFFDEFFDEFFDEFFDEFFDC
:10241800DEFFDEFFDEFFDEFFDEFFDEFFDEFFDEFFCC
:10242800DEFFDEFFDEFFDEFFDEFFDEFFDEFFDEFFBC
:10243800DEFFDEFFDEFFDEFFDEFFDEFFDEFFDEFFAC
:10244800DEFFDEFFDEFFDEFFDEFFDEFFDEFFDEFF9C
:10245800DEFFDEFFDEFFDEFFDEFFDEFFDEFFDEFF8C
:10246800DEFFDEFFDEFFDEFFDEFFDEFFDEFFDEFF7C
:10247800DEFFDEFFDEFFDEFFDEFFDEFFDEFFDEFF6C
:10248800DEFFDEFFDEFFDEFFDEFFDEFFDEFFDEFF5C
:10249800DEFFDEFFDEFFDEFFDEFFDEFFDEFFDEFF4C
:1024A800DEFFDEFFDEFFDEFFDEFFDEFFDEFFDEFF3C
:1024B800DEFFDEFFBEFFBEF7BEF7BEF7BEF7BEF714
:1024C800BEFFDEFFDEFFDEFFDEFFDEFFDEFFDEFF3C
:1024D800DEFFDEFFDEFFDEFFDEFFDEFFDEFFDEFF0C
:1024E800DEFFDEFFDEFFDEFFDEFFDEFFDEFFDEFFFC
:1024F800DEFFDEFFDEFFDEFFDEFFDEFFDEFFDEFFEC
:10250800DEFFDEFFDEFFDEFFDEFFDEFFDEFFDEFFDB
:10251800DEFFDEFFDEFFDEFFDEFFDEFFDEFFDEFFCB
:10252800DEFFDEFFDEFFDEFFDEFFDEFFDEFFDEFFBB
:10253800DEFFDEFFDEFFDEFFDEFFDEFFDEFFDEFFAB
:10254800DEFFDEFFDEFFDEFFDEFFDEFFDEFFDEFF9B
:10255800DEFFDEFFDEFFDEFFDEFFDEFFDEFFDEFF8B
:10256800DEFFDEFFDEFFDEFFDEFFDEFFDEFFDEFF7B
:10257800DEFFDEFFDEFFDEFFDEFFDEFFDEFFDEFF6B
:10258800DEFFDEFFBFFFBFFFDFFFBFFFDEFFDEFFB7
:10259800DEFFDDFFDDFFFEFFBCF7DDFFBDFFDEFF79
:1025A800DFFF9FF7DEFFBFFFBFFFDEFFBDFFBCF70A
:1025B800BEFFBFF7FFF7FFF7FFF7FFF7FFFFFFFFCC
:1025C8009DEFFCFFDEFF7DF7FDFFFEFFDEF7BEF7A8
:1025D800BEFF9FFF9FFFDFFFDFFFDCF7FCFFFCFF75
:1025E800BEFFBFFF5DFF9EFF9DFF9DFF9CFFDDFFC0
:1025F800DCFFBCF7DDFFBCF7DEFFDEFFBEFFDEFF62
:10260800BDFFBEFFDCFFDCFFDEFF7DFF7EFFDFFFDF
:102618007EFFBEFFDDFFDDF7DDF7DEF7DEFFDEFF65
:10262800DEFFDEFFDEFFDEFFDEFFDEFFDEFFDEFFBA
:10263800DEFFDEFFDEFFDEFFDEFFDEFFDEFFDEFFAA
:10264800DEFFDEFFDEFFDEFFDEFFDEFFDEFFDEFF9A
:10265800DEFFDEFFDEFFDEFFDEFFDEFFDEFFDEFF8A
:10266800DEFFDEFFDEFFDEFFDEFFDEFFDEFFDEFF7A
:10267800DEFFDEFFDEFFDEFFDEFFDEFFDEFFDEFF6A
:10268800DEFFDEFFDFFFDFFFDFFFBFFFDEFFDEFF76
:10269800DDFFDDFFDEFFBEF7FFFFFEFFBDF7BEF784
:1026A800BEF7DFFFDEFF7DF7FFFF7EEF9FF7FFFF3F
:1026B800FFFF7DFF78DE52B58D9C8D9C8F9C78D670
:1026C800FFFFBFF77FFFDFFFDDFFBDF7BDF7FEFFB1
:1026D800DDFFFEFFFEFF9DEFBEEFDEF79EEF9FEFF3
:1026E800DFFFBFFFFFFFFFFFFFFFFFFFFFFFFFFF52
:1026F800FFFFFFFFDFFFDFFF7EF7BFFF7EFF5DF716
:10270800FFFF9DFFDDF7DDFFBEFFBEFFDFFF5DFFC3
:10271800DFFFDEFFDDFFDDF7DEF7DEF7DFFFDEFFE1
:10272800DEFFDEFFDEFFDEFFDEFFDEFFDEFFDEFFB9
:10273800DEFFDEFFDEFFDEFFDEFFDEFFDEFFDEFFA9
:10274800DEFFDEFFDEFFDEFFDEFFDEFFDEFFDEFF99
:10275800DEFFDEFFDEFFDEFFDEFFDEFFDEFFDEFF89
:10276800DEFFDEFFDEFFDEFFDEFFDEFFDEFFDEFF79
:10277800DEFFDEFFDEFFDEFFDEFFDEFFDEFFDEFF69
:10278800DEFFDEFFDDFFDDFFDEFFBFFFBFFFDEFF99
:10279800DDFFDDFFBDF7DFFFDFFF9EF7DEFFFEFF9A
:1027A800BDF79DF7BEFFBDFFFEFFFFFFFFF738CE69
:1027B8006B7B636AA17A018BC3A3E4AB428B804134
:1027C8004752DDDEDFFF7EF7BEFFFFFFFEFFBDEFF6
:1027D800FDF7BCEFBDF7DDF7FFFFFFFFFFFFDFFFF2
:1027E8007FF71BE79AC659BE18B618B639BE7AC61F
:1027F800FCDE5EE7BFF7BFF7FFFFDFFFFFFFFFFF6E
:102808005DEFBEFFBEF7DEFFBEFF7EF79FFFDFFF77
:102818009DF7DEFFDDFFDDF7DEF7DFF7DFFFBFFF48
:10282800BEFFDEFFDEFFDEFFDEFFDEFFDEFFDEFFD8
:10283800DEFFDEFFDEFFDEFFDEFFDEFFDEFFDEFFA8
:10284800DEFFDEFFDEFFDEFFDEFFDEFFDEFFDEFF98
:10285800DEFFDEFFDEFFDEFFDEFFDEFFDEFFDEFF88
:10286800DEFFDEFFDEFFDEFFDEFFDEFFDEFFDEFF78
:10287800DEFFDEFFDEFFDEFFDEFFDEFFDEFFDEFF68
:10288800DEFFDEFFDCFFDDFFDEFFBFFFBFFFBFFFB8
:10289800DDFFDDFFDEFFDFFF7FF7DFFFDFFFBCF7D8
:1028A800FDFFFEFFDFFF9EF7FDF717DF0563A04979
:1028B800A59B48DD29FE48FE48FE07FE89FE06C5A1
:1028C800415AC549FADEFFFFBEF7BFF7DEF7FEF74C
:1028D800FEF7DFF7DFFFFFFF3BEF31AD49734552EE
:1028E800A141203140314029202920310029E02808
:1028F800E028E0288239E8620D84D5B57DEFFFF73E
:10290800FFF7DFEFFFFFBFF79FF7DFFFDFFFDEFF18
:10291800DDFFFDFFDDF7DEF7DFF7BFFFBFFFBFFF1E
:10292800BEFFDDFFDEFFDEFFDEFFDEFFDEFFDEFFD8
:10293800DEFFDEFFDEFFDEFFDEFFDEFFDEFFDEFFA7
:10294800DEFFDEFFDEFFDEFFDEFFDEFFDEFFDEFF97
:10295800DEFFDEFFDEFFDEFFDEFFDEFFDEFFDEFF87
:10296800DEFFDEFFDEFFDEFFDEFFDEFFDEFFDEFF77
:10297800DEFFDEFFDEFFDEFFDEFFDEFFDEFFDEFF67
:10298800DEFFDEFFFCFFDCFFDDFFBFFFBFFFBFFF99
:10299800DDFFDDFFDEFFBFF79FF7FFFFBEEFDDF7CF
:1029A800DDF79DEFDFE7FFF772AD4031818B08EE71
:1029B80007F646FEC4FD05FEE4F504F604EE84DDE4
:1029C800819B27B4295BFFFF9EEFFFF7DEEFDEF761
:1029D8009FF7DFFF9DE64D8381492062208323A472
:1029E80006CD67D5C7E5E7ED08EEE8EDC8E567DD94
:1029F80006CDC6BCA293A06A8039E0202021E95206
:102A080038BEFFF7BFF79FF7FFFF9FF7DFFFBEF75F
:102A1800FDFFDDF7DDF7DEF7DFF7BFFFBFFFBFFF25
:102A2800BEFFBDFFDEFFDEFFDEFFDEFFDEFFDEFFF7
:102A3800DEFFDEFFDEFFDEFFDEFFDEFFDEFFDEFFA6
:102A4800DEFFDEFFDEFFDEFFDEFFDEFFDEFFDEFF96
:102A5800DEFFDEFFDEFFDEFFDEFFDEFFDEFFDEFF86
:102A6800DEFFDEFFDEFFDEFFDEFFDEFFDEFFDEFF76
:102A7800DEFFDEFFDEFFDEFFDEFFDEFFDEFFDEFF66
:102A8800DEFFDEFFDCFFDDFFDEFFBFFFBFFFBFFFB6
:102A9800DEFFDDFFBDF7DFF7FFFFBFF7BEF7FFFF84
:102AA8009DEFFFFFFFEFF07340310AC52AF6E5F509
:102AB80044FEA3FDC5FDC4F524F604E689FE409B4B
:102AC80022C4E8FD874A5CEFBEF7FEFFBDF7DFFFD3
:102AD8009FFFF5BC8351248B48D56AFE68FE25FE0E
:102AE80025FE04FEE2FD03FE03FEE3FDE3FD04FE16
:102AF80025FE05FE68FE49FE4BF6AAD547A4A04967
:102B08008020865A5CEFFFFF9EF7BFF7BFF7BDEF47
:102B1800FDF7DDF7DDF7DEF7DFF7BFF7BFFFBFFF34
:102B2800BEFFBDFFDEFFDEFFDEFFDEFFDEFFDEFFF6
:102B3800DEFFDEFFDEFFDEFFDEFFDEFFDEFFDEFFA5
:102B4800DEFFDEFFDEFFDEFFDEFFDEFFDEFFDEFF95
:102B5800DEFFDEFFDEFFDEFFDEFFDEFFDEFFDEFF85
:102B6800DEFFDEFFDEFFDEFFDEFFDEFFDEFFDEFF75
:102B7800DEFFDEFFDEFFDEFFDEFFDEFFDEFFDEFF65
:102B8800DEFFDEFFDDF7DDFFDEFFBFFFBFFFBFFFBC
:102B9800BEFFDEFFFEFFDDF7FEF7DEF7DFF79EEF95
:102BA800DFFFFFFF8E6B41316DD50CF6C8F569FE6E
:102BB800E5F506FEE5F525FEC2E588F6A19BE08A67
:102BC800C8F525FEEA6A38D6FEFFDCF7DCFFBEFF53
:102BD800F3BCC159C9DDA6FE85FEE5EDC5F5E4FDEA
:102BE800C2FDE1FD23F623FE03FEE3FDE4FDE4FD63
:102BF800E4FDE4FDA3F5E4FDC5FDE7FD09FE4CFE9B
:102C0800E8D48061E028B8DEDEFFBFF7FFFFBEEF43
:102C1800DDF7FEFFDEFFDEFFDFF7DFF7DFFFBEFFDA
:102C2800BEFFBDFFDEFFDEFFDEFFDEFFDEFFDEFFF5
:102C3800DEFFDEFFDEFFDEFFDEFFDEFFDEFFDEFFA4
:102C4800DEFFDEFFDEFFDEFFDEFFDEFFDEFFDEFF94
:102C5800DEFFDEFFDEFFDEFFDEFFDEFFDEFFDEFF84
:102C6800DEFFDEFFDEFFDEFFDEFFDEFFDEFFDEFF74
:102C7800DEFFDEFFDEFFDEFFDEFFDEFFDEFFDEFF64
:102C8800DEFFDEFFDEF7DEFFBFFFBFFFBEFFBEFFDA
:102C9800BFFFDEFFFDFFDCF7FCF7FEFFBFF79FFF7E
:102CA800FFFFAC7BA03007AC81A3209B60A3A0A34F
:102CB800A2BC85DD04F6E3F567FEE0A360934BF65E
:102CC800E5ED44FE497B56DEFDFFDCFFDCFF98E6C0
:102CD800E2610BF643FE20F601EE05F606F605FE68
:102CE80004FEC4FD44F624F604F605F606FEE5FDEA
:102CF800E5FDE5FDE4FDE4FD04FEE3FDC4FDE5FDC1
:102D0800E6FD48FE047380419BFFDFFF5DEFDFF7C0
:102D1800FEFFBDF7DEFFDEFFDFFFDFF7DEF7DEFFDA
:102D2800DDFFBDFFDEFFDEFFDEFFDEFFDEFFDEFFD5
:102D3800DEFFDEFFDEFFDEFFDEFFDEFFDEFFDEFFA3
:102D4800DEFFDEFFDEFFDEFFDEFFDEFFDEFFDEFF93
:102D5800DEFFDEFFDEFFDEFFDEFFDEFFDEFFDEFF83
:102D6800DEFFDEFFDEFFDEFFDEFFDEFFDEFFDEFF73
:102D7800DEFFDEFFDEFFDEFFDEFFDEFFDEFFDEFF63
:102D8800DEFFDEFFDEF7DFFFBFFFBFFFBEFFBEFFD8
:102D9800BFFFBFFFDDF7DCF7FCF7BEF79FFFDFFFE4
:102DA8006F9C002987ED2AFEC6F504F622EE41CD78
:102DB80002C520AC82DD46FEC0AB81A369F644EEB5
:102DC80002E644F6677BF7EEFDFFDEF7FFFFEC93C4
:102DD80047B427FEC0F521FE23F604EE24EE24F6C0
:102DE800C4F5E7FD24FEE3F505FEA4F5E6FDE6FDE2
:102DF800E5FDE5FD04FE03FE03FE02FE02FE02FE03
:102E0800E3FDE3FD8DF6806AEA8BFEFF9EF7BFF7D0
:102E1800BEF7DEFFDEFFBEFFDEFFDEF7DDF7DDF724
:102E2800DDFFDDFFDEFFDEFFDEFFDEFFDEFFDEFFB4
:102E3800DEFFDEFFDEFFDEFFDEFFDEFFDEFFDEFFA2
:102E4800DEFFDEFFDEFFDEFFDEFFDEFFDEFFDEFF92
:102E5800DEFFDEFFDEFFDEFFDEFFDEFFDEFFDEFF82
:102E6800DEFFDEFFDEFFDEFFDEFFDEFFDEFFDEFF72
:102E7800DEFFDEFFDEFFDEFFDEFFDEFFDEFFDEFF62
:102E8800DEFFDEFFDEF7BFFFBFFFBFFFBEFFBEFFF7
:102E9800BFFFBFFFDEF7FDF7DDF75EEFBFFFD7CD62
:102EA800E03089BD45FEC3F525FE24FE02F664FE2A
:102EB80044FE25F689FEA1A3619B6AFEA2E521EEE8
:102EC80063FEC4E5EB83FAFFFCEFFFEFBFF749733E
:102ED800CBDDE4F523FEA3FD05FE44F622EE02F663
:102EE800E5FD87FDA3FDE5FDE5FD05FEE5FDC4FD6A
:102EF800E4FD04FE03FE23FE23FE02F603F603F6BA
:102F080003F6E4F506EEC9DD41623AF7BFFFDFFFDD
:102F1800DFFFBEFFBEFFBEFFDEFFDDF7FDF7FDF7FB
:102F2800DDFFDEFFDEFFDEFFDEFFDEFFDEFFDEFFB2
:102F3800DEFFDEFFDEFFDEFFDEFFDEFFDEFFDEFFA1
:102F4800DEFFDEFFDEFFDEFFDEFFDEFFDEFFDEFF91
:102F5800DEFFDEFFDEFFDEFFDEFFDEFFDEFFDEFF81
:102F6800DEFFDEFFDEFFDEFFDEFFDEFFDEFFDEFF71
:102F7800DEFFDEFFDEFFDEFFDEFFDEFFDEFFDEFF61
:102F8800DEFFDEFFDDFFDFFFBFFFBFFFBEFFDDFFB0
:102F9800DEFFBFF7FFF7BDF7BEF7BFFF1EF7E1384B
:102FA80025A487EEC2FD02FEE2ED06F6E6FDC4FDAD
:102FB800A2FD47FE66BCA17A0BEE25F601FE23FEB4
:102FC800E5FDA2CC97BDFEFFFCEFFFEFDFF7CB835B
:102FD800A9DD04FEA2FDC5FDC4FDE2F542F603FE2F
:102FE800A5FDA8FDE5FDC5FDC5FDA4FDA4FD05FEE7
:102FF800E4FD24FE03FE03FE03FE04FE04FEE4FDDE
:10300800E5FDE5FD03F669FE848B92C5FFFFBFF77A
:10301800DFFFBEFFBEFFBEFFDEFFDDF7FDF7FDF7FA
:10302800DDFFDEFFDEFFDEFFDEFFDEFFDEFFDEFFB1
:10303800DEFFDEFFDEFFDEFFDEFFDEFFDEFFDEFFA0
:10304800DEFFDEFFDEFFDEFFDEFFDEFFDEFFDEFF90
:10305800DEFFDEFFDEFFDEFFDEFFDEFFDEFFDEFF80
:10306800DEFFDEFFDEFFDEFFDEFFDEFFDEFFDEFF70
:10307800DEFFDEFFDEFFDEFFDEFFDEFFDEFFDEFF60
:10308800DEFFDEFFDDFFDEFFBFFFBFFFBEFFDEFFAF
:10309800BEFFDEF7DFF79EF7DFFFDFFFA97283725F
:1030A80089F641EEE2FD43FE44F6E6F5C8FDA6FDCD
:1030B800C6FD07EDE071ECE528EE02F603FEC6FD5D
:1030C800E8FD41C49FEE9EFFFDF7DFF7FFFF2C9C54
:1030D800A7D523FEE3FDC5FDC4FD23FE03FEE4FDE5
:1030E800C6FD86FDC5FDA4FDC4FD25FE04FEC3F591
:1030F80024FE04FE04FEE4FD05FEE5FDE5FDE5FD18
:10310800E5FDE5FDE0FD47FEA8BC10B5DFFF7EEF5D
:10311800DFFF9EFFBEFFBFFFDEFFDDF7FDF7FDF718
:10312800DDFFBEFFDEFFDEFFDEFFDEFFDEFFDEFFD0
:10313800DEFFDEFFDEFFDEFFDEFFDEFFDEFFDEFF9F
:10314800DEFFDEFFDEFFDEFFDEFFDEFFDEFFDEFF8F
:10315800DEFFDEFFDEFFDEFFDEFFDEFFDEFFDEFF7F
:10316800DEFFDEFFDEFFDEFFDEFFDEFFDEFFDEFF6F
:10317800DEFFDEFFDEFFDEFFDEFFDEFFDEFFDEFF5F
:10318800DEFFDEFFDDFFDEFFBFFFBFFFBFFFBEFFCD
:10319800DEF7DEF7BFF7DFFFFFFF53BD40492CEE38
:1031A800C4ED41FE03FEC3F525F604EEC3F5A6FD06
:1031B800EBFD609264C448F604EE04FEC5FD84FD90
:1031C800E6FD85ED73AC7DFFBDFF7FFFBFFFD3D567
:1031D800A4B445F6E4F548FEE7FDE4F503FE04FE75
:1031E80006FE06FE04FE24FE23FEE2F503F665FE57
:1031F80003F6E3F505F6E5FDE5FDE5FDE5FDE5FD91
:1032080004FE04FEC0FD47FE09C50FB5FFFFBEF76B
:10321800BEF7BDFFBEFFBFFFBFFFDEF7FDF7FDF73F
:10322800DEFFBEFFDEFFDEFFDEFFDEFFDEFFDEFFCE
:10323800DEFFDEFFDEFFDEFFDEFFDEFFDEFFDEFF9E
:10324800DEFFDEFFDEFFDEFFDEFFDEFFDEFFDEFF8E
:10325800DEFFDEFFDEFFDEFFDEFFDEFFDEFFDEFF7E
:10326800DEFFDEFFDEFFDEFFDEFFDEFFDEFFDEFF6E
:10327800DEFFDEFFDEFFDEFFDEFFDEFFDEFFDEFF5E
:10328800DEFFDEFFDEFFDDFFDEFFBEFFBFFFBEFFAE
:10329800BEF7DEF7FFFF5EEFBDFFE15186B447F6EC
:1032A800E3F5E3FDE3FDE5FDC4F563FE42F647FE05
:1032B800C3B3A09268FEE2F5C2F506FEC5FDE4FDC3
:1032C80003F625FEC8727BFFBEFF5EFFBFFF9CFFB3
:1032D8002BBD09DE44CDE1B302BCA6F504FE02F61F
:1032E800E3ED60BC45F6E3EDE2ED64FEC1ED23FEDF
:1032F80003F624FEE4FDE5FDE6FDE5FD05FE04F626
:1033080004F623F601FEE6F56BD5EFACFFFFDEF71A
:10331800BDF7BDFFBEFFBFFFBFFFDFF7FEF7DDF75D
:10332800DEFFBEFFDEFFDEFFDEFFDEFFDEFFDEFFCD
:10333800DEFFDEFFDEFFDEFFDEFFDEFFDEFFDEFF9D
:10334800DEFFDEFFDEFFDEFFDEFFDEFFDEFFDEFF8D
:10335800DEFFDEFFDEFFDEFFDEFFDEFFDEFFDEFF7D
:10336800DEFFDEFFDEFFDEFFDEFFDEFFDEFFDEFF6D
:10337800DEFFDEFFDEFFDEFFDEFFDEFFDEFFDEFF5D
:10338800DEFFDEFFDEFFDDFFDDFFDEFFBFFFBFFF8D
:10339800DEF7DEF79EEFFFFFAF9CA06AC9F6A1E556
:1033A80004FEA5FD04FEC3FD04FEC3F525F6E6DD17
:1033B800606AE7E505F603FE04FEC4F505F624F6A3
:1033C80004F6C4F529635AEFFDFFBDFFFEFF9EF723
:1033D800BDFF2994E049809362C4E4DCA3F543FE71
:1033E80023F6C0C480A349F627F6E4ED04FEE2F50F
:1033F80003FEE3FDE4FDE5FDE5FDE5FDE5FD04FE79
:1034080004F603F6E1FD27FEA9BC34CEDDF7BDEFD7
:10341800FDFFBCFFBEFF9FFFBFFFDFF7DEF7DEF754
:10342800BEFFBFFFDEFFDEFFDEFFDEFFDEFFDEFFEB
:10343800DEFFDEFFDEFFDEFFDEFFDEFFDEFFDEFF9C
:10344800DEFFDEFFDEFFDEFFDEFFDEFFDEFFDEFF8C
:10345800DEFFDEFFDEFFDEFFDEFFDEFFDEFFDEFF7C
:10346800DEFFDEFFDEFFDEFFDEFFDEFFDEFFDEFF6C
:10347800DEFFDEFFDEFFDEFFDEFFDEFFDEFFDEFF5C
:10348800DEFFDEFFBFFFDDFFDCFFDDFFBFFFBFFFAD
:10349800BFF7DEF7DFF79DF7445268BD64EE41FEE3
:1034A800C3FD88FDE5FDE2FD03FEC6FD2BFE808B16
:1034B8004094A6EEE5EDE6FDE4FD23F603E6A4DD83
:1034C80006FE63F506327BDFFCF7FAF7DBEFFFFF5A
:1034D800DFD6A531EBC5C9EE27F6E8FD47FE02FEAB
:1034E80023F666FE27B4A082EAED29FEA5F524FEA0
:1034F800E3FDC3FDC3FDC4FDC5FDC5FDC5FDE4FD7C
:10350800E4FDE4FDC2FD28FE27A4B6DEFEFFDDEFE4
:10351800FCF7BCFFBEFF9FFFBFFFDFF7DEF7DEF75C
:10352800BEFFBFFFDEFFDEFFDEFFDEFFDEFFDEFFEA
:10353800DEFFDEFFDEFFDEFFDEFFDEFFDEFFDEFF9B
:10354800DEFFDEFFDEFFDEFFDEFFDEFFDEFFDEFF8B
:10355800DEFFDEFFDEFFDEFFDEFFDEFFDEFFDEFF7B
:10356800DEFFDEFFDEFFDEFFDEFFDEFFDEFFDEFF6B
:10357800DEFFDEFFDEFFDEFFDEFFDEFFDEFFDEFF5B
:10358800DEFFDEFFFEF7BFF7BFFFBFFFBDFFFBF7A4
:10359800FCEFBEE7FFF732AD207B67F6C4F5C7FD49
:1035A800C7FDE6FDE5FD03FE02FE25E6A7C5A06210
:1035B80027F6C3FDE3FDE4FDA3F506FE41C407D5E8
:1035C8004DF6E4AB03089083FEFFDCF7DCEFFEFF6B
:1035D800D2BD017B49F6A4F5E8FD8CE5ADC40DCD5F
:1035E800CCE52AEE04FFC3C4E0690CDD4AFEE1ED38
:1035F80040FE22FEE4FDE4FDE3FDC3FDA4FDA5FDC0
:10360800C4FD02FE87E688C5C88BDFFF7FF77FF71A
:10361800DFFFBEF7DDFFDDFFBEFFBFFF9FFFBFFF80
:10362800BFFFDEFFDEFFDEFFDEFFDEFFDEFFDEFFC9
:10363800DEFFDEFFDEFFDEFFDEFFDEFFDEFFDEFF9A
:10364800DEFFDEFFDEFFDEFFDEFFDEFFDEFFDEFF8A
:10365800DEFFDEFFDEFFDEFFDEFFDEFFDEFFDEFF7A
:10366800DEFFDEFFDEFFDEFFDEFFDEFFDEFFDEFF6A
:10367800DEFFDEFFDEFFDEFFDEFFDEFFDEFFDEFF5A
:10368800DEFFDEFFDFF7DEF7BDFFBEFF9EFFDCFFDC
:10369800FCF7BFEFBFFF6B7BE5BCA3FEE2FDE5FDDA
:1036A80005FE21F6A5FDE2FD01F6C9FE007B84AC0E
:1036B80026F603FEC4FDE6FD05FE24FEA0A34DEE9E
:1036C8006DCDA0388418A21857CEFDFFBDEFDFEFEF
:1036D8001AE700522BEE48FEC3C4C038C030C028D9
:1036E8002031205A418BABDD4ACDC05902A48AFE55
:1036F800E6EDE4F504FEE2F5E1F522FE43FE02F60E
:10370800E3F524FE6BE6C16A54DEDFFF5FF7FFFFD7
:10371800BFF7BEF7FDF7DDFFBEFFBFFF9FFFBFFF8F
:10372800DEFFDDFFDEFFDEFFDEFFDEFFDEFFDEFFAA
:10373800DEFFDEFFDEFFDEFFDEFFDEFFDEFFDEFF99
:10374800DEFFDEFFDEFFDEFFDEFFDEFFDEFFDEFF89
:10375800DEFFDEFFDEFFDEFFDEFFDEFFDEFFDEFF79
:10376800DEFFDEFFDEFFDEFFDEFFDEFFDEFFDEFF69
:10377800DEFFDEFFDEFFDEFFDEFFDEFFDEFFDEFF59
:10378800DEFFDEFFDFF7DDF7DCFF9EFF9EFFBDFFFC
:10379800BCFFDFFFFDF6C67A27EE20F602FE25FE07
:1037A80002F640F6E4FDE3F566FEE4C440722AF64C
:1037B80025FEE3F506FEA6FD06FEA0C404BDADC5C4
:1037C8002031A028E31860082642DDFFDFF7BFF7A5
:1037D800FFFF2D9460624BEE4AE6C0498018E0185E
:1037E800E018A0100020C030E7AC4BDE005A605152
:1037F8006AB44CEE67F6A6FE65F623EE43EEA5F630
:1038080047EE87DD60416CA4BCFF7DFFDFFF9EEFC4
:10381800FEF7FDF7FDF7DDFFBEFFBFFFBFFFBFFFF0
:10382800DEFFDDF7DEFFDEFFDEFFDEFFDEFFDEFFB1
:10383800DEFFDEFFDEFFDEFFDEFFDEFFDEFFDEFF98
:10384800DEFFDEFFDEFFDEFFDEFFDEFFDEFFDEFF88
:10385800DEFFDEFFDEFFDEFFDEFFDEFFDEFFDEFF78
:10386800DEFFDEFFDEFFDEFFDEFFDEFFDEFFDEFF68
:10387800DEFFDEFFDEFFDEFFDEFFDEFFDEFFDEFF58
:10388800DEFFDEFFFEF7DEFFBEFF9EFFBEFF9DFFF1
:103898009DFFDFFFB3CDC59B48FEE3FDC4FDC5FD1D
:1038A800C3F562FEE1FD06F60BEE607A83CC06FEF8
:1038B800C4F505FEC5FDE5FD27FEA093405260292D
:1038C800A010C218C2082221601012ADDFFF9FEFBE
:1038D8007FEFDFFF4D9C005AC9AC0BAD6031C010C3
:1038E800C308E408A7284010C03909A5C66272A415
:1038F80069628049428365A469C5A9CD47C545A4C5
:10390800816AE038519CDFFFBEFFDEFFDEF7DDF79E
:10391800FDF7DCF7DDF7DDFFBEFFBEFFBEFFDEFF14
:10392800DDF7FDF7DEFFDEFFDEFFDEFFDEFFDEFF99
:10393800DEFFDEFFDEFFDEFFDEFFDEFFDEFFDEFF97
:10394800DEFFDEFFDEFFDEFFDEFFDEFFDEFFDEFF87
:10395800DEFFDEFFDEFFDEFFDEFFDEFFDEFFDEFF77
:10396800DEFFDEFFDEFFDEFFDEFFDEFFDEFFDEFF67
:10397800DEFFDEFFDEFFDEFFDEFFDEFFDEFFDEFF57
:10398800DEFFDEFFFCF7DEFF9FFF9FFFBEFF9DFF10
:103998009EFFFEFFEDB4C6BC07FEC6FD85FDE6FD35
:1039A800E4FDE3F5E0F509F6AABC407A06FEC3FD9E
:1039B800E5FD06FE04FE03FE87DD6683A95A400086
:1039C8000211E1080411C210801044317DF7DFFFB5
:1039D8007EEFDFFFBEFFB9EEAB8BAB83064A8108F3
:1039E8000411E510C3180319A0102542DADEDFFF21
:1039F800FFFFD5C54A7B25526241A4416339854101
:103A08008E833AD6BFFF5FFF5EF7DEF7BCEFFDF7A8
:103A1800FCF7FDF7DEF7DEFFBEFFBEFFDEFFDEFFD1
:103A2800DDF7FDF7DEFFDEFFDEFFDEFFDEFFDEFF98
:103A3800DEFFDEFFDEFFDEFFDEFFDEFFDEFFDEFF96
:103A4800DEFFDEFFDEFFDEFFDEFFDEFFDEFFDEFF86
:103A5800DEFFDEFFDEFFDEFFDEFFDEFFDEFFDEFF76
:103A6800DEFFDEFFDEFFDEFFDEFFDEFFDEFFDEFF66
:103A7800DEFFDEFFDEFFDEFFDEFFDEFFDEFFDEFF56
:103A8800DEFFDEFFDCF7DEFFBFFFBEFFDDFFDEF798
:103A9800BFF7FFFFCDA448C526F6A3FDE4FDE4FD6E
:103AA800C3FDE3FD47F6EAE5A05906D5E5FD04FEAA
:103AB800C4F504FEE2FD04FE46ACB1A49FFFA931A3
:103AC800C1086109A308C318C32041100F8CFEFF69
:103AD800FEF7BEEFBFF7DFFFDFFF5EFFDBE68952D1
:103AE8006108C310E010C210850889319EEFFDF708
:103AF800FCFFFEFFFFFFBFFF3EF7FEEE3FF7BFFFF5
:103B0800DFFFFFFF5FF77FFFDFFFFEFFFDF7DCEF63
:103B1800DCEFDEF7DFFFBFFFBEFFDEFFDDFFDEFF0E
:103B2800DEF7DEF7DEFFDEFFDEFFDEFFDEFFDEFFB5
:103B3800DEFFDEFFDEFFDEFFDEFFDEFFDEFFDEFF95
:103B4800DEFFDEFFDEFFDEFFDEFFDEFFDEFFDEFF85
:103B5800DEFFDEFFDEFFDEFFDEFFDEFFDEFFDEFF75
:103B6800DEFFDEFFDEFFDEFFDEFFDEFFDEFFDEFF65
:103B7800DEFFDEFFDEFFDEFFDEFFDEFFDEFFDEFF55
:103B8800DEFFDEFFDEFFDDFFDDFFFDFFDDF7DFEF40
:103B9800DFF7DFF78D9C85A466F601FEE3FDA3FD44
:103BA800C3FD24FE0DEE406AC09B68FEC4F5E5FD2A
:103BB800E4FD02FEE2FD69FE827239D6BFFF9CDE9B
:103BC8002319E000E318C318A3208318C3201BE7B8
:103BD800DDEFFEF7DFF79FEF5EEFBFFFFFFF3BE78D
:103BE800E218C2100011E318C71824005184FCFF22
:103BF80099EFDDFF9EF79FFFBFFFDFFFBFFFBFF716
:103C08009EF79CEFBFFFBFFF9DF7BCEFDCF7FDF70A
:103C1800DEF7DFFFBFFFBFFFBEFFBEFFDDFFDEFF3A
:103C2800DFF7DFF7DEFFDEFFDEFFDEFFDEFFDEFFB2
:103C3800DEFFDEFFDEFFDEFFDEFFDEFFDEFFDEFF94
:103C4800DEFFDEFFDEFFDEFFDEFFDEFFDEFFDEFF84
:103C5800DEFFDEFFDEFFDEFFDEFFDEFFDEFFDEFF74
:103C6800DEFFDEFFDEFFDEFFDEFFDEFFDEFFDEFF64
:103C7800DEFFDEFFDEFFDEFFDEFFDEFFDEFFDEFF54
:103C8800DEFFDEFFBEFFBEFFDEFFFDFFBDF7BFF7B5
:103C9800DFF7BDF70CA5E06A84D567FE08FE29FEAC
:103CA8008AFE65D5E059408B68FE23F6E2F5E4F517
:103CB80004FEC3FD25FEE6C4E672BFFF9FFF9FFF1B
:103CC80054A58000C118C218A320C42001088E730F
:103CD800FFFFBEEFBEEFFFF7FEF7BDEFDDF7FFFF1B
:103CE800D39C41080221A210E418831065299CEF97
:103CF800DDFFBDF7DEFFDDFFBDFFBDFFDDF7DDF753
:103D0800FCF7FCF7BEF7FEFFFDF7DCF7FDF7DEF783
:103D1800BFF7BFFFBFFFBFFFBEFFBEFFDDFFDEFF78
:103D2800DFF7DFF7DEFFDEFFDEFFDEFFDEFFDEFFB1
:103D3800DEFFDEFFDEFFDEFFDEFFDEFFDEFFDEFF93
:103D4800DEFFDEFFDEFFDEFFDEFFDEFFDEFFDEFF83
:103D5800DEFFDEFFDEFFDEFFDEFFDEFFDEFFDEFF73
:103D6800DEFFDEFFDEFFDEFFDEFFDEFFDEFFDEFF63
:103D7800DEFFDEFFDEFFDEFFDEFFDEFFDEFFDEFF53
:103D8800DEFFDEFFBDFFBFFF9FFFBEFFDEFFBFF709
:103D98009FFFBCFFA79C86C58072229328BCE5AB19
:103DA800C07AA05141A44AF6C6F5E2F541FE22F6D2
:103DB800C3F5E6F569FEE07AAFA4DFFF7EFFBDFF3D
:103DC800FFFF6E634008C218C318A310C418A418D4
:103DD8005AD6FFFFDEF7BDF7DCF7FDF7DDF79DF7F5
:103DE800DFFF2A526210C218E218C21841089394E1
:103DF800FFFF9EF7BDFFDDFFFEFFBCF7DDFFDDF730
:103E0800DEF7DEFFFDF7FDF7FDF7DDF7DEF7DFFF95
:103E1800BFFF9FFF9FFFBFFFBEFFBEFFBEFFDEFFCE
:103E2800DFFFBFFFDEFFDEFFDEFFDEFFDEFFDEFFC0
:103E3800DEFFDEFFDEFFDEFFDEFFDEFFDEFFDEFF92
:103E4800DEFFDEFFDEFFDEFFDEFFDEFFDEFFDEFF82
:103E5800DEFFDEFFDEFFDEFFDEFFDEFFDEFFDEFF72
:103E6800DEFFDEFFDEFFDEFFDEFFDEFFDEFFDEFF62
:103E7800DEFFDEFFDEFFDEFFDEFFDEFFDEFFDEFF52
:103E8800DEFFDEFFBDFF9FFF9FFFBFFFBDFF9EFF61
:103E98009FFFDCFF87A466C5EAE5A5A3607AC07A20
:103EA800049CEDDD86F6C5F5E6FD05FEC0ED42FE97
:103EB80003FE27F648C5E0497CFFDFFF7DF7DCF706
:103EC800FEFF5FF7C739821003190319C2182108CA
:103ED800CC6ADFFF9DFFDDFFFEFFBDF7BEFF7EFF63
:103EE800DFFF3ADE8210A218C118C2188310A93960
:103EF8007FF7DFFF9EF7DEFFBDFFBDFFFEFFBEFFC2
:103F0800BFF7BFF7FDF7FDF7DDF7DDFFDEFFBFFF0A
:103F1800BFFFBFFFBFFFBFFFBEFFBEFFBEFFDEFF8D
:103F2800DEFFBFFFDEFFDEFFDEFFDEFFDEFFDEFFC0
:103F3800DEFFDEFFDEFFDEFFDEFFDEFFDEFFDEFF91
:103F4800DEFFDEFFDEFFDEFFDEFFDEFFDEFFDEFF81
:103F5800DEFFDEFFDEFFDEFFDEFFDEFFDEFFDEFF71
:103F6800DEFFDEFFDEFFDEFFDEFFDEFFDEFFDEFF61
:103F7800DEFFDEFFDEFFDEFFDEFFDEFFDEFFDEFF51
:103F8800DEFFDEFFBEFFBFFFBFFFDEFFBCFFBDFFE2
:103F9800BFFFDEFF10BDA5938CF648EEC7FE86FE78
:103FA80067F607EE03F6E2FD04FEA4FD25FEC2F562
:103FB80002F6A9F6A05A2E8CBFFF5EFFBDF7FEF7EA
:103FC800BDEFDFFFF9C5A310E210C1080219C22036
:103FD8004118F7D59DFF9DFFBEFF7EEFFFFFDFFF76
:103FE8003CEFFEFFAE7B40080421A318C418210053
:103FF80015A5FFFF9EF7FFFF9DF7BEF7DEFFBEF793
:10400800BFF7DFF7DEF7DEF7DEFFDEFFBEFFBEFF3E
:10401800BEFFBEFFBEFFBEFFBEFFBEFFBEFFBEFFB0
:10402800DEFFDEFFDEFFDEFFDEFFDEFFDEFFDEFFA0
:10403800DEFFDEFFDEFFDEFFDEFFDEFFDEFFDEFF90
:10404800DEFFDEFFDEFFDEFFDEFFDEFFDEFFDEFF80
:10405800DEFFDEFFDEFFDEFFDEFFDEFFDEFFDEFF70
:10406800DEFFDEFFDEFFDEFFDEFFDEFFDEFFDEFF60
:10407800DEFFDEFFDEFFDEFFDEFFDEFFDEFFDEFF50
:10408800DEFFDEFFDEFFDEFFDEFFDDF7DCF7DCF75D
:10409800DEFFBFFF1DFF045AA9D543EE20EE00F650
:1040A80000FE03FEC4FDE2FD01FEE3FDC6FDE5F5ED
:1040B80087FE639CC131BFFF7FFFDFFFBDF7BDE710
:1040C800DEF79DFFFFFF308420002311C210C218C5
:1040D8006118885AFDFF9DF7BFEFBFEF9FEFDFF72D
:1040E800FEF7FCEF3DEFE420C218C210E318810888
:1040F8004842DEFFDEF7BEF7DEFFBEF7DEF7DDF78C
:10410800FEFFDDF7BFFFBFFFBFFFDEFFBEFFBEFF45
:10411800BEFFBEFFBEFFBEFFBEFFBEFFBEFFDDFF90
:10412800DDFFDDFFDEFFDEFFDEFFDEFFDEFFDEFFA1
:10413800DEFFDEFFDEFFDEFFDEFFDEFFDEFFDEFF8F
:10414800DEFFDEFFDEFFDEFFDEFFDEFFDEFFDEFF7F
:10415800DEFFDEFFDEFFDEFFDEFFDEFFDEFFDEFF6F
:10416800DEFFDEFFDEFFDEFFDEFFDEFFDEFFDEFF5F
:10417800DEFFDEFFDEFFDEFFDEFFDEFFDEFFDEFF4F
:10418800DEFFDEFFFDFFDEF7DFF7FEF7FCF7FCF7EB
:10419800DDF79FF7DFFFB1AC606268EE20EE60FEEE
:1041A800C0FDA4FDC5FD05FEC2F5E4FD06FE08F64A
:1041B80069CDE020F6B5FFFF7FFFBFFFFFFFFFF7E8
:1041C800FFF79CFF9DFFBDF74842A2080411A3100A
:1041D80003216008D4B5FEFFFFF7FFFFFFFF5EEF86
:1041E8009CE7FCEFBFFF528C400821190119C2104F
:1041F800A21037C6FFFF7DEFDFFFBFF7DFFFDEF757
:10420800FEFFDDF7BFFFBFFFBFFFBEFFBEFFDDFF45
:10421800DDFFDDFFDEFFDEFFDEFFDEFFDEFFDEFFB0
:10422800DEFFDDFFDEFFDEFFDEFFDEFFDEFFDEFF9F
:10423800DEFFDEFFDEFFDEFFDEFFDEFFDEFFDEFF8E
:10424800DEFFDEFFDEFFDEFFDEFFDEFFDEFFDEFF7E
:10425800DEFFDEFFDEFFDEFFDEFFDEFFDEFFDEFF6E
:10426800DEFFDEFFDEFFDEFFDEFFDEFFDEFFDEFF5E
:10427800DEFFDEFFDEFFDEFFDEFFDEFFDEFFDEFF4E
:10428800DEFFDEFFFCF7DEF7BFF7DFF7FDF7FDF730
:10429800DEF7BFF7BEF7DDFF8762C3726BF626F65F
:1042A800A5FDC9FDE4F5A5ED28FEA6ED49FE8ADDCC
:1042B800C0287194FFFF7DEFFEFF9EF77EF79FF702
:1042C800BEF7BDF79CFFFEFF79CE8200C308051933
:1042D800E4186108A952FEFFD6CD2D8BC861455957
:1042E8002451845158B55EF70221C010E110E21044
:1042F80061004C63FFFF9EF7BFF79FF7DFFFBEF734
:10430800BEF7DFFFBFFFBFFFBFFFDEFFBEFFBEFF81
:10431800DEFFDEFFDEFFDEFFDEFFDDFFDEFFDEFFAE
:10432800BEFFBFFFDEFFDEFFDEFFDEFFDEFFDEFFDC
:10433800DEFFDEFFDEFFDEFFDEFFDEFFDEFFDEFF8D
:10434800DEFFDEFFDEFFDEFFDEFFDEFFDEFFDEFF7D
:10435800DEFFDEFFDEFFDEFFDEFFDEFFDEFFDEFF6D
:10436800DEFFDEFFDEFFDEFFDEFFDEFFDEFFDEFF5D
:10437800DEFFDEFFDEFFDEFFDEFFDEFFDEFFDEFF4D
:10438800DEFFDEFFDDF7DEF7BEF7DEFFDEFFBFFF95
:10439800BFFFBEF7DDF7DEF7BEFF895AC2494BCD36
:1043A8006CFE09F687FE47F629F60BF627B4602857
:1043B800CD83DFFF9EF7DEF7DDF7BDF7BFFF9FFF79
:1043C800DFFFFDF79DFFBEFFFFFF2F7C8200A310DC
:1043D800A418C42083208651204020682180A4A0EE
:1043E800E5A023806E7BDFFFAF7B4108A210E218B7
:1043F800A1102321DADEFFFF9EF7BEFFBEFFBEFF3E
:10440800BEFFDFFFBFFFDEFFDEFFDDFFDDFFDEFFFC
:10441800BFFFBFFFDFF7DEF7DEF7DDF7DEF7DEFF12
:10442800BFFFBFFFDEFFDEFFDEFFDEFFDEFFDEFFDA
:10443800DEFFDEFFDEFFDEFFDEFFDEFFDEFFDEFF8C
:10444800DEFFDEFFDEFFDEFFDEFFDEFFDEFFDEFF7C
:10445800DEFFDEFFDEFFDEFFDEFFDEFFDEFFDEFF6C
:10446800DEFFDEFFDEFFDEFFDEFFDEFFDEFFDEFF5C
:10447800DEFFDEFFDEFFDEFFDEFFDEFFDEFFDEFF4C
:10448800DEFFDEFFDFFFDDFFFCFFDDFF9FFF9FFF9D
:104498009FFFBFFFBEF7DFF7DFF7FFFF0E8C603926
:1044A8006062E09380AC60AC208B2059C14836C56F
:1044B800FFFFBEF7BEFFFFFFFEF7FEF7DFFF9FFF20
:1044C8009EFFFEFFDFFFDEFFFEFFFEF7473A820892
:1044D800E520441865308450469904B9C3D043D8C0
:1044E80066D804B8ED83FFFFFEEEC620C418C110DD
:1044F80022212000B194FEFFBCFFDDFFBDFFDEFFDF
:10450800DEFFBDFFDEFFDDFFDDFFDDFFDDFFBEFF00
:10451800BFFFBFFFDFF7DFF7FEF7DDF7DDF7DFFFF0
:10452800BFFF9FFFDEFFDEFFDEFFDEFFDEFFDEFFF9
:10453800DEFFDEFFDEFFDEFFDEFFDEFFDEFFDEFF8B
:10454800DEFFDEFFDEFFDEFFDEFFDEFFDEFFDEFF7B
:10455800DEFFDEFFDEFFDEFFDEFFDEFFDEFFDEFF6B
:10456800DEFFDEFFDEFFDEFFDEFFDEFFDEFFDEFF5B
:10457800DEFFDEFFDEFFDEFFDEFFDEFFDEFFDEFF4B
:10458800DEFFDEFFDEFFDEFFDEFFDEFFDEFFDEFF3B
:10459800DEFFDEFFBEF7DEFFDEFF9DF7FFFF5CEF0D
:1045A800718CEB5A694A494A2C6334A59EF7FFFF80
:1045B800BEFFFFFFFFFFBADE718C895286310321EF
:1045C8004529694AD1841BE7DCFED0C30982203023
:1045D8008038216084B085D044C884C085B885C03F
:1045E800A6C003A00B82B5E4B5DCA7518000420148
:1045F8004201E100073ABFFF7FFF3EFFDEFFDDEF2C
:10460800BDFF9DFFDEFFDEFFDEFFBEFFBEFFDEFF5C
:10461800DEFFDEFFDEFFDEFFDEFFDEFFDEFFDEFFAA
:10462800DEFFDEFFDEFFDEFFDEFFDEFFDEFFDEFF9A
:10463800DEFFDEFFDEFFDEFFDEFFDEFFDEFFDEFF8A
:10464800DEFFDEFFDEFFDEFFDEFFDEFFDEFFDEFF7A
:10465800DEFFDEFFDEFFDEFFDEFFDEFFDEFFDEFF6A
:10466800DEFFDEFFDEFFDEFFDEFFDEFFDEFFDEFF5A
:10467800DEFFDEFFDEFFDEFFDEFFDEFFDEFFDEFF4A
:10468800DEFFDEFFDEFFDEFFDEFFDEFFDEFFDEFF3A
:10469800DEFFDEFFDEFF7DF7BEFFDEFF9DF7BEF724
:1046A800DEFFFFFFDFFFFFFFBEFFFFFFBEF7BEF726
:1046B800DFFF17C6CB5A8631484A0F84B29CD39C79
:1046C800CE7BC6398110C3302561C568256941484C
:1046D800626046A964B885C864C084C084C085C0C7
:1046E800A6C023A883402659E560835082484138F4
:1046F80020288120C108FACEDEF79FFF7EFFDEFF6B
:104708009EFF9DFFDEFFDEFFDEFFDEFFDEFFDEFF3A
:10471800DEFFDEFFDEFFDEFFDEFFDEFFDEFFDEFFA9
:10472800DEFFDEFFDEFFDEFFDEFFDEFFDEFFDEFF99
:10473800DEFFDEFFDEFFDEFFDEFFDEFFDEFFDEFF89
:10474800DEFFDEFFDEFFDEFFDEFFDEFFDEFFDEFF79
:10475800DEFFDEFFDEFFDEFFDEFFDEFFDEFFDEFF69
:10476800DEFFDEFFDEFFDEFFDEFFDEFFDEFFDEFF59
:10477800DEFFDEFFDEFFDEFFDEFFDEFFDEFFDEFF49
:10478800DEFFDEFFDEFFDEFFDEFFDEFFDEFFDEFF39
:10479800DEFFDEFFDEFFFFFFBEF7BEF7BEFFBEFF98
:1047A800DEFF9DF7BEF7BEFF9DF75CEFFFFF9AD6D1
:1047B800EB5A694AD39C7DEFFFFFDEFFFFFFFFFF47
:1047C800FFFFFFFF14C522404781E6802260A478DE
:1047D80006A965C044C885C884C084C064C844C8E4
:1047E80085C844B082400459E470269147A9A5A819
:1047F8004490636000188C63FEE7FFFFDFFF9EF7BD
:10480800DFFFFFF7BEFFBEFFDEFFDEFFDEFFDEFFDE
:10481800DEFFDEFFDEFFDEFFDEFFDEFFDEFFDEFFA8
:10482800DEFFDEFFDEFFDEFFDEFFDEFFDEFFDEFF98
:10483800DEFFDEFFDEFFDEFFDEFFDEFFDEFFDEFF88
:10484800DEFFDEFFDEFFDEFFDEFFDEFFDEFFDEFF78
:10485800DEFFDEFFDEFFDEFFDEFFDEFFDEFFDEFF68
:10486800DEFFDEFFDEFFDEFFDEFFDEFFDEFFDEFF58
:10487800DEFFDEFFDEFFDEFFDEFFDEFFDEFFDEFF48
:10488800DEFFDEFFDEFFDEFFDEFFDEFFDEFFDEFF38
:10489800DEFFDEFF9DF7DEFFBEF7DEFFFFFF9DF7C1
:1048A8009DF7DEFFDFFF7DEFFFFFFFFF518C484ADA
:1048B80034A5DFFFFFFFBEF79EF7BEF79DF77DEF3C
:1048C8009EF7DEFF0C938468C69001708488E6A882
:1048D80086C805D844D084C884C084C844D044C895
:1048E80085C844C06160C3784180018802A044B88B
:1048F800C6C8A5A0E57841406651B6C5FFF7DDDF1B
:10490800DEE7BEEFBEFFBEFFDEFFDEFFDEFFDEFF3F
:10491800DEFFBEFFDEFFDEFFDEFFDEFFDEFFDEFFC7
:10492800DEFFDEFFDEFFDEFFDEFFDEFFDEFFDEFF97
:10493800DEFFDEFFDEFFDEFFDEFFDEFFDEFFDEFF87
:10494800DEFFDEFFDEFFDEFFDEFFDEFFDEFFDEFF77
:10495800DEFFDEFFDEFFDEFFDEFFDEFFDEFFDEFF67
:10496800DEFFDEFFDEFFDEFFDEFFDEFFDEFFDEFF57
:10497800DEFFDEFFDEFFDEFFDEFFDEFFDEFFDEFF47
:10498800DEFFDEFFDEFFDEFFDEFFDEFFDEFFDEFF37
:10499800DEFFDEFFDEFF9DF7BEF7BEF7BEF7FFFFC7
:1049A800DEFFBEFF9DF7FFFF1BE7CA5AAE7BBEF7CF
:1049B800FFFFDEFFBEF7BEF7DEFFDFFFBEF7BEF785
:1049C800DEFFBEF7A659C570017865A0E6B865B8E0
:1049D80045D804E044D864C884C084D044D044C8CE
:1049E80065C864C82188C4B0E5C0E5B863A801A05B
:1049F80064C0A5C0E6C0C6A844800038EE83FFE7BF
:104A0800FEE7FFFFBEFFBEFFDEFFDEFFDEFFDEFFCD
:104A1800DEFFBEFFDEFFDEFFDEFFDEFFDEFFDEFFC6
:104A2800DEFFDEFFDEFFDEFFDEFFDEFFDEFFDEFF96
:104A3800DEFFDEFFDEFFDEFFDEFFDEFFDEFFDEFF86
:104A4800DEFFDEFFDEFFDEFFDEFFDEFFDEFFDEFF76
:104A5800DEFFDEFFDEFFDEFFDEFFDEFFDEFFDEFF66
:104A6800DEFFDEFFDEFFDEFFDEFFDEFFDEFFDEFF56
:104A7800DEFFDEFFDEFFDEFFDEFFDEFFDEFFDEFF46
:104A8800DEFFDEFFDEFFDEFFDEFFDEFFDEFFDEFF36
:104A9800DEFFDEFFFFFFBEFFDEFFBEF7BEF7DEFF75
:104AA8009DF79DF7FFFF96B52842D6BDFFFFBEF7DD
:104AB8009DF7BEFFDFFFBEFFBEF7BEFFDEFFBEFFF6
:104AC800BEFFDEFFEE8B003868A1A6B066C066D0D8
:104AD80024C844D064D063C864C864D064C864C8B7
:104AE80084C864C863B064C823C8A4C0E4B0A4B0D0
:104AF80084C844C824C085C8A7C8E7A800400B6B71
:104B0800FFFF7DEFBEFFBEFFBEFFDEFFDEFFDEFF65
:104B1800DEFFDEFFDEFFDEFFDEFFDEFFDEFFDEFFA5
:104B2800DEFFDEFFDEFFDEFFDEFFDEFFDEFFDEFF95
:104B3800DEFFDEFFDEFFDEFFDEFFDEFFDEFFDEFF85
:104B4800DEFFDEFFDEFFDEFFDEFFDEFFDEFFDEFF75
:104B5800DEFFDEFFDEFFDEFFDEFFDEFFDEFFDEFF65
:104B6800DEFFDEFFDEFFDEFFDEFFDEFFDEFFDEFF55
:104B7800DEFFDEFFDEFFDEFFDEFFDEFFDEFFDEFF45
:104B8800DEFFDEFFDEFFDEFFDEFFDEFFDEFFDEFF35
:104B9800DEFFDEFFBEF7BEF7BEFFFFFFBEFF7DF7FD
:104BA800DEFFFFFF1084CB5A3CEFFFFF9DF79EF717
:104BB800FFFFDEFFBEF7DEFFBEFFBEFFDFFFBEF773
:104BC8009EF7DEFFFEFF0B7B215007B124C065D0A6
:104BD80064C8A4C084C864C864D064C864C084C8F5
:104BE80084C864C864B885D065D044C084B8A4C0FB
:104BF80064D023D0A5D043B844C085C8C6B80160E6
:104C08000C8BFEFFBEFFBEFFBEFFBEFFBEFFBEFF9A
:104C1800DEFFDEFFDEFFDEFFDEFFDEFFDEFFDEFFA4
:104C2800DEFFDEFFDEFFDEFFDEFFDEFFDEFFDEFF94
:104C3800DEFFDEFFDEFFDEFFDEFFDEFFDEFFDEFF84
:104C4800DEFFDEFFDEFFDEFFDEFFDEFFDEFFDEFF74
:104C5800DEFFDEFFDEFFDEFFDEFFDEFFDEFFDEFF64
:104C6800DEFFDEFFDEFFDEFFDEFFDEFFDEFFDEFF54
:104C7800DEFFDEFFDEFFDEFFDEFFDEFFDEFFDEFF44
:104C8800DEFFDEFFDEFFDEFFDEFFDEFFDEFFDEFF34
:104C9800DEFFDEFFDEFFDEFFBEF79DF77DEFFFFFE5
:104CA8003CE7EB5ACF7BFFFFDFFF9EF7FFFFDEFFFE
:104CB8009EF7DEFFDFFFBEFFDEFFBEFFBEF7DEFFB3
:104CC800DEFFBEF7FEF7FDFFCA824270C6C845C8C0
:104CD80085C8A4B8A4C064C884D084C064C084C88B
:104CE80084C884C085C065C845C845C885C864C827
:104CF80023C864D802C8C4C883B884C845D0C6C00D
:104D0800426013BDDEFFBEFFBEFFBEFFBEFFBEFF9B
:104D1800DEFFDEFFDEFFDEFFDEFFDEFFDEFFDEFFA3
:104D2800DEFFDEFFDEFFDEFFDEFFDEFFDEFFDEFF93
:104D3800DEFFDEFFDEFFDEFFDEFFDEFFDEFFDEFF83
:104D4800DEFFDEFFDEFFDEFFDEFFDEFFDEFFDEFF73
:104D5800DEFFDEFFDEFFDEFFDEFFDEFFDEFFDEFF63
:104D6800DEFFDEFFDEFFDEFFDEFFDEFFDEFFDEFF53
:104D7800DEFFDEFFBEFFDEFFDEFFBEFFBEF7BEFFCB
:104D8800DEFFDEFFDEFFDEFFDEFFDEFFFFFFDEFF12
:104D9800BEF7DEFFDEFF7DF7DEFFFFFFFFFF75AD2D
:104DA800895275ADDEFFDEFFDEFFBEFFBEFFBEFF30
:104DB800BEFFBEFFDEFFDEFFDEFFBEFFBEFFBEFFA3
:104DC800BEFFBEF7BDF7FEF77CFF826044A085D02A
:104DD80064C8A4C0A4C084C084C884C084C084C873
:104DE80084C084C085D065C085C866D045D065C8F4
:104DF80064C064D043D843D0A4C883B885C886C0EB
:104E0800A588AB92FFFFBEFFDEFFDEFFBEF7BEF751
:104E1800DEFFBEF7DEFFDEFFDEFFDEFFDEFFDEFFCA
:104E2800DEFFDEFFDEFFDEFFDEFFDEFFDEFFDEFF92
:104E3800DEFFDEFFDEFFDEFFDEFFDEFFDEFFDEFF82
:104E4800DEFFDEFFDEFFDEFFDEFFDEFFDEFFDEFF72
:104E5800DEFFDEFFDEFFDEFFDEFFDEFFDEFFDEFF62
:104E6800DEFFDEFFDEFFDEFFDEFFDEFFDEFFDEFF52
:104E7800DEFFDEFFDEFFBEF7BEF7DEFFFFFFBEFF91
:104E8800BEF7BEFFDEFFBEF7BEF7BEFF9DF7BEF75B
:104E9800DEFFBEF77DEFFFFFFFFF1BE76D6B6D6B5E
:104EA8005CEFFFFFBEFFBEFFBEFFBEFFBEFFBEFF43
:104EB800BEFFBEFFDEFFDEFFDEFFBEFFBEFFBEFFA2
:104EC800BEFFBEF7BDF7FEFFB1ACC3684398A5C8E7
:104ED80044C864C884C084C085C085C865C865C81E
:104EE80064C084C024C884C064B845D005D845C807
:104EF800C5C084C043D044E023C884C043A8E6B0FA
:104F0800647873D4FFFF9DF79DF7DEFFBEFFBEFFF9
:104F1800DEFFBEFFDEFFDEFFDEFFDEFFDEFFDEFFC1
:104F2800DEFFDEFFDEFFDEFFDEFFDEFFDEFFDEFF91
:104F3800DEFFDEFFDEFFDEFFDEFFDEFFDEFFDEFF81
:104F4800DEFFDEFFDEFFDEFFDEFFDEFFDEFFDEFF71
:104F5800DEFFDEFFDEFFDEFFDEFFDEFFDEFFDEFF61
:104F6800DEFFDEFFDEFFDEFFDEFFDEFFDEFFDEFF51
:104F7800DEFFDEFFBEF7DEFFDEFFDEFFDEFFDEFF69
:104F8800DEFFDEFFBEFFFFFFDEFFBEF7DEFFBEFF78
:104F9800BEF7FFFFFFFF7DEF0F84EB5AB6B5FFFFAB
:104FA800DEFF9DF7BEFFBEFFBEFFBEFFDEFFDEFFDA
:104FB800DEFFDEFFDEFFDEFFDEFFBEFFBEFFBEFF61
:104FC800BEFFBEF7FEF75DFF6771E58884A0A5C048
:104FD80044D024D064C885C085C865D045D065D084
:104FE80064C084C0A4D0A4C885C825C846D825C82C
:104FF800C6C864B063C084D023C885C824A885887F
:10500800C560BBF6FFFFBEFFBEF7DEFFDEFFDEFFBB
:10501800DEFFBEF7DEFFDEFFDEFFDEFFDEFFDEFFC8
:10502800DEFFDEFFDEFFDEFFDEFFDEFFDEFFDEFF90
:10503800DEFFDEFFDEFFDEFFDEFFDEFFDEFFDEFF80
:10504800DEFFDEFFDEFFDEFFDEFFDEFFDEFFDEFF70
:10505800DEFFDEFFDEFFDEFFDEFFDEFFDEFFDEFF60
:10506800DEFFDEFFDEFFDEFFDEFFDEFFDEFFDEFF50
:10507800DEFFDEFFFFFFDEFFBEF79DF7DEFFFFFF6F
:10508800DEFF9DF79DF7BEF7DEFFDEFFDEFFFFFFC9
:10509800DEFFBAD6508C4C6BF3A4DEFFFFFFDEFFB9
:1050A800DEFFDEFFBEFFBEFFBEFFBEFFDEFFDEFF90
:1050B800DEFFDEFFDEFFDEFFDEFFBEFFBEFFDEFF40
:1050C800BEFFBEF7FFEFD8E50270C7B8C6B864B830
:1050D80064D024D064D065C865C845D825D865D0C3
:1050E80064C084C062B863C844C8A6C865B086B83E
:1050F80086C085C0A4B8A4B884C065D066C003784B
:10510800A861FFF7BEF7DEFFFFFFBEFFBEF7DEFFB9
:10511800DEFFBEF7DEFFDEFFDEFFDEFFDEFFDEFFC7
:10512800DEFFDEFFDEFFDEFFDEFFDEFFDEFFDEFF8F
:10513800DEFFDEFFDEFFDEFFDEFFDEFFDEFFDEFF7F
:10514800DEFFDEFFDEFFDEFFDEFFDEFFDEFFDEFF6F
:10515800DEFFDEFFDEFFDEFFDEFFDEFFDEFFDEFF5F
:10516800DEFFDEFFDEFFDEFFDEFFDEFFDEFFDEFF4F
:10517800DEFFDEFFBEF7BEF7DEFFFFFF7DEF1BE7BA
:105188007DEFFFFFFFFFFFFFBEF77DF7DADE34A5F7
:10519800EF830F84B6B5DEFFFFFFBEF7BEF7BEF79D
:1051A800BEF7DEFFDEFFDEFFDEFFDEFFDEFFBEFF57
:1051B800BEFFBEFFDEFFDEFFDEFFBEFFBEFFDEFF7F
:1051C800BEF7BEF7FFE711B4038887D0A6C863B857
:1051D80064C844D064D065C865D045D845D865D082
:1051E80064C884C0A3C084D064C063906681C4705E
:1051F80085A066C885C884B0A4B844C886D0659020
:10520800C861FFEFBEF7BEFFBEF7BEF7BEF7DEFF11
:10521800DEFFDEFFDEFFDEFFDEFFDEFFDEFFDEFF9E
:10522800DEFFDEFFDEFFDEFFDEFFDEFFDEFFDEFF8E
:10523800DEFFDEFFDEFFDEFFDEFFDEFFDEFFDEFF7E
:10524800DEFFDEFFDEFFDEFFDEFFDEFFDEFFDEFF6E
:10525800DEFFDEFFDEFFDEFFDEFFDEFFDEFFDEFF5E
:10526800DEFFDEFFDEFFDEFFDEFFDEFFDEFFDEFF4E
:10527800DEFFDEFFFFFFBEF7BEF7DEFF7DEF79CE74
:1052880095B534A534A5F39CD29C9194919495B589
:105298001BE7DEFFFFFF9DF7BEF7FFFFBEFFFFFF27
:1052A800BEF7BEFFDEFFDEFFDEFFDEFFDEFFBEFF76
:1052B800BEFFBEFFDEFFDEFFDEFFBEFFDEFFDEFF5E
:1052C800BEF79DF7FFEF0C8B038886D044C884C8CF
:1052D80063C064C864D064C865C865C845D065D073
:1052E80064C884C064D064C884A86679DAEE99E694
:1052F800067965B045D084C883C044C865C8E7B896
:105308008350F6B5FFFFDEFF9DF7BEF7DEFFBEF761
:10531800BEF7DEFFDEFFDEFFDEFFDEFFDEFFDEFFC5
:10532800DEFFDEFFDEFFDEFFDEFFDEFFDEFFDEFF8D
:10533800DEFFDEFFDEFFDEFFDEFFDEFFDEFFDEFF7D
:10534800DEFFDEFFDEFFDEFFDEFFDEFFDEFFDEFF6D
:10535800DEFFDEFFDEFFDEFFDEFFDEFFDEFFDEFF5D
:10536800DEFFDEFFDEFFDEFFDEFFDEFFDEFFDEFF4D
:10537800DEFFDEFFBEF7DEFFDEFFBEF7DEFFFFFF6C
:10538800FFFFBEF73CE75CEF7DEFBEF7FFFFFFFFD7
:10539800DEFFDEFFBEFFDEFFBEF7DEFF9DF7BEF7D6
:1053A800DEFFDEFFDEFFDEFFDEFFDEFFDEFFDEFF0D
:1053B800DEFFDEFFDEFFDEFFDEFFBEFFDEFFDEFF1D
:1053C800BEF79DF7FFF7EB822378C6C844C884C8A8
:1053D80083C083C864C864C885C085C085C864D0D4
:1053E80064D084C824D006B96260B6DDFFFFFFFF31
:1053F800B3BC437085C064D083C884C844D0C6C8D1
:1054080042708972DEFFDEFFBEF7BEF7DEFFBEFF29
:105418009DF7DEFFDEFFDEFFDEFFDEFFDEFFDEFFE5
:10542800DEFFDEFFDEFFDEFFDEFFDEFFDEFFDEFF8C
:10543800DEFFDEFFDEFFDEFFDEFFDEFFDEFFDEFF7C
:10544800DEFFDEFFDEFFDEFFDEFFDEFFDEFFDEFF6C
:10545800DEFFDEFFDEFFDEFFDEFFDEFFDEFFDEFF5C
:10546800DEFFDEFFDEFFDEFFDEFFDEFFDEFFDEFF4C
:10547800DEFFDEFFDEFFDEFFDEFFBEF7BEF7BEF7B4
:10548800BEFFBEFFFFFFFFFFDEFFBEFFBEF7BEF79A
:10549800BEF79DF7BEFFBEFFDEFFDEFFBEF7FFFFD4
:1054A800BEF7DEFFBEFFBEFFDEFFDEFFDEFFDEFF74
:1054B800DEFFDEFFDEFFDEFFDEFFBEFFDEFFDEFF1C
:1054C800BEF79DF7FFFF0C83426006B964C843C866
:1054D80083C883C864C884C8A5B8C5B085C044D08B
:1054E80044D084C845D005994451DBEE9FFF9EFF08
:1054F8005CF74569E5B023C863D083D024D824C8B5
:1055080047B18250FBE6BEF7FFFFBEF7BEF7DEFFEE
:10551800DEFFDEFFDEFFDEFFDEFFDEFFDEFFDEFF9B
:10552800DEFFDEFFDEFFDEFFDEFFDEFFDEFFDEFF8B
:10553800DEFFDEFFDEFFDEFFDEFFDEFFDEFFDEFF7B
:10554800DEFFDEFFDEFFDEFFDEFFDEFFDEFFDEFF6B
:10555800DEFFDEFFDEFFDEFFDEFFDEFFDEFFDEFF5B
:10556800DEFFDEFFDEFFDEFFDEFFDEFFDEFFDEFF4B
:10557800DEFFDEFFDEFFDEFFDEFFDEFFDEFFDEFF3B
:10558800DEFFDEFFDEFFDEFFDEFFDEFFDEFFDEFF2B
:10559800DEFFDEFFDEFFDEFFDEFFDEFFDEFFDEFF1B
:1055A800DEFFDEFFDEFFDEFFDEFFDEFFDEFFDEFF0B
:1055B800DEFFDEFFBEFFBEFFFFFF9EF7DFFFBEF789
:1055C800BEF79EF7FFEFD0A3027887C885C884B8D6
:1055D800A4C064C844D065D065C865C845D045D066
:1055E80065C8A4B805E8A5A886699DF7FFEFFFDFA1
:1055F800FFEF6A8244A065E003D0C5C0A5B0A6C08D
:10560800C5C80090D29CFFFFBEF79DF7DEFFBEF72E
:10561800DEFFDEFFDEF7DEF7DEFFDEFFDEFFDEFFAA
:10562800DEFFDEFFDEFFDEFFDEFFDEFFDEFFDEFF8A
:10563800DEFFDEFFDEFFDEFFDEFFDEFFDEFFDEFF7A
:10564800DEFFDEFFDEFFDEFFDEFFDEFFDEFFDEFF6A
:10565800DEFFDEFFDEFFDEFFDEFFDEFFDEFFDEFF5A
:10566800DEFFDEFFDEFFDEFFDEFFDEFFDEFFDEFF4A
:10567800DEFFDEFFDEFFDEFFDEFFDEFFDEFFDEFF3A
:10568800DEFFDEFFDEFFDEFFDEFFDEFFDEFFDEFF2A
:10569800DEFFDEFFDEFFDEFFDEFFDEFFDEFFDEFF1A
:1056A800DEFFDEFFDEFFDEFFDEFFDEFFDEFFDEFF0A
:1056B800DEFFDEFFFFFFDEFFBDF7DEFFDFFFBEF729
:1056C800DEFFDEFFFFEFB3B40160E7C064C0A4C033
:1056D80063B863C064C865C885C885C865C865C837
:1056E80084C084C025E8A490C5519DF7BFFF5EEF34
:1056F800FFFFEC82029045D864C88388E478A488C8
:1057080006B901A06D73FFFF9DF7BEF7DEFFDEF758
:10571800DEFFDEFFDEF7DEF7DEFFDEFFDEFFDEFFA9
:10572800DEFFDEFFDEFFDEFFDEFFDEFFDEFFDEFF89
:10573800DEFFDEFFDEFFDEFFDEFFDEFFDEFFDEFF79
:10574800DEFFDEFFDEFFDEFFDEFFDEFFDEFFDEFF69
:10575800DEFFDEFFDEFFDEFFDEFFDEFFDEFFDEFF59
:10576800DEFFDEFFDEFFDEFFDEFFDEFFDEFFDEFF49
:10577800DEFFDEFFDEFFDEFFDEFFDEFFDEFFDEFF39
:10578800DEFFDEFFDEFFDEFFDEFFDEFFDEFFDEFF29
:10579800DEFFDEFFDEFFDEFFDEFFDEFFDEFFDEFF19
:1057A800DEFFDEFFDEFFDEFFDEFFDEFFDEFFDEFF09
:1057B800DEFFDEFFBEF7DEFFDEFFBEF79DF7FFFF71
:1057C800FFFF17C64C53C320224806A164B864C81B
:1057D80084C8C5C884C084C865C865C885C884C06D
:1057E80084C084C804D866A18449DAEE9FFF7FFF8D
:1057F800FFFF4C8B4398A6D8C5B065611AF7AEABCE
:10580800838884B0E741DEFF9DF7BEFFDEFFBEF769
:10581800DEFFDEF7DEFFDEFFDEFFDEFFDEFFDEFFA0
:10582800DEFFDEFFDEFFDEFFDEFFDEFFDEFFDEFF88
:10583800DEFFDEFFDEFFDEFFDEFFDEFFDEFFDEFF78
:10584800DEFFDEFFDEFFDEFFDEFFDEFFDEFFDEFF68
:10585800DEFFDEFFDEFFDEFFDEFFDEFFDEFFDEFF58
:10586800DEFFDEFFDEFFDEFFDEFFDEFFDEFFDEFF48
:10587800DEFFDEFFDEFFDEFFDEFFDEFFDEFFDEFF38
:10588800DEFFDEFFDEFFDEFFDEFFDEFFDEFFDEFF28
:10589800DEFFDEFFDEFFDEFFDEFFDEFFDEFFDEFF18
:1058A800DEFFDEFFDEFFDEFFDEFFDEFFDEFFDEFF08
:1058B800BEFFBEFFDEFFBEFF9DF7BEF7FFFFF7BDD1
:1058C800895240088000A2108128E478C6B824C80C
:1058D80043D043C084C064C844D045D064C884C0A1
:1058E80064C844D044E0C4B0A26096DD9EFF9DEF3A
:1058F800FEFF697A639865C04380EF93FEEF1BF75C
:10590800E478639844297DF7DEFFBEFFBEFFBEF74B
:10591800DEFFBEF7DEFFDEFFDEFFDEFFDEFFDEFFBF
:10592800DEFFDEFFDEFFDEFFDEFFDEFFDEFFDEFF87
:10593800DEFFDEFFDEFFDEFFDEFFDEFFDEFFDEFF77
:10594800DEFFDEFFDEFFDEFFDEFFDEFFDEFFDEFF67
:10595800DEFFDEFFDEFFDEFFDEFFDEFFDEFFDEFF57
:10596800DEFFDEFFDEFFDEFFDEFFDEFFDEFFDEFF47
:10597800DEFFDEFFDEFFDEFFDEFFDEFFDEFFDEFF37
:10598800DEFFDEFFDEFFDEFFDEFFDEFFDEFFDEFF27
:10599800DEFFDEFFDEFFDEFFDEFFDEFFDEFFDEFF17
:1059A800DEFFDEFFDEFFDEFFDEFFDEFFDEFFDEFF07
:1059B800BEFFBEFFDEFF9DF7FFFFBEF72C63A21000
:1059C8004008E318E318E210A118815006A965D031
:1059D80023D084D084C064C844D044D084C884C050
:1059E80064C843D003D0A5D063980CABBDFFFEF7C5
:1059F8007BF7E370A4B8E6C8A478B3ACFFEFBFFFA9
:105A08000992A4982429BADEFFFF9EFFBEFF9EF7E5
:105A1800FFFFBEF7DEFFDEFFDEFFDEFFDEFFDEFF9D
:105A2800DEFFDEFFDEFFDEFFDEFFDEFFDEFFDEFF86
:105A3800DEFFDEFFDEFFDEFFDEFFDEFFDEFFDEFF76
:105A4800DEFFDEFFDEFFDEFFDEFFDEFFDEFFDEFF66
:105A5800DEFFDEFFDEFFDEFFDEFFDEFFDEFFDEFF56
:105A6800DEFFDEFFDEFFDEFFDEFFDEFFDEFFDEFF46
:105A7800DEFFDEFFDEFFDEFFDEFFDEFFDEFFDEFF36
:105A8800DEFFDEFFDEFFDEFFDEFFDEFFDEFFDEFF26
:105A9800DEFFDEFFDEFFDEFFDEFFDEFFDEFFDEFF16
:105AA800DEFFDEFFBEFFDEFFDEFFDEFFDEFFBEFF46
:105AB800BEFFBEF7BEFFFFFF99CEA6312000A210A1
:105AC8000421A210A320A210E2188138E48885B826
:105AD80085D003C064C064C864C864C884C084C076
:105AE80083C083C063D044D0C6C84278F3CC9CFF3F
:105AF8000B9B4188A5C8A5C0037057CDFFF7BFFF12
:105B0800ECA26388242917CEFFFF9EFFBEFFBEFFCD
:105B1800FFFFBEF7DEFFDEFFDEFFDEFFDEFFDEFF9C
:105B2800DEFFDEFFDEFFDEFFDEFFDEFFDEFFDEFF85
:105B3800DEFFDEFFDEFFDEFFDEFFDEFFDEFFDEFF75
:105B4800DEFFDEFFDEFFDEFFDEFFDEFFDEFFDEFF65
:105B5800DEFFDEFFDEFFDEFFDEFFDEFFDEFFDEFF55
:105B6800DEFFDEFFDEFFDEFFDEFFDEFFDEFFDEFF45
:105B7800DEFFDEFFDEFFDEFFDEFFDEFFDEFFDEFF35
:105B8800DEFFDEFFDEFFDEFFDEFFDEFFDEFFDEFF25
:105B9800DEFFDEFFDEFFDEFFDEFFDEFFDEFFDEFF15
:105BA800DEFFDEFFBEFFDEFFDEFFDEFFDEFFBEFF45
:105BB800BEF7BEF7DEFFDADE44298210E318E318E9
:105BC800E318A2108320C218A1102018415005A183
:105BD80064B8A6D064C864C864C864C864C864C823
:105BE80084C0A4C043C0A5C885C0A5A88488268948
:105BF8008388A4C023C8A6D0037816C5FFF7DFFFA3
:105C08004EAB63800429F7C5FFFFBEFFBEFFDEFF72
:105C1800BEFFDEFFDEFFDEFFDEFFDEFFDEFFDEFFB4
:105C2800DEFFDEFFDEFFDEFFDEFFDEFFDEFFDEFF84
:105C3800DEFFDEFFDEFFDEFFDEFFDEFFDEFFDEFF74
:105C4800DEFFDEFFDEFFDEFFDEFFDEFFDEFFDEFF64
:105C5800DEFFDEFFDEFFDEFFDEFFDEFFDEFFDEFF54
:105C6800DEFFDEFFDEFFDEFFDEFFDEFFDEFFDEFF44
:105C7800DEFFDEFFDEFFDEFFDEFFDEFFDEFFDEFF34
:105C8800DEFFDEFFDEFFDEFFDEFFDEFFDEFFDEFF24
:105C9800DEFFDEFFDEFFDEFFDEFFDEFFDEFFDEFF14
:105CA800DEFFDEFFBEFFDEFFDEFFDEFFDEFFBEFF44
:105CB800BEF7BEF7FFFF89528108C218C218C21882
:105CC800A210E318821061088529F29C70AC415833
:105CD80006B165C045C845C865C845C825D024D89B
:105CE80044D064C864D064C844C0A6C886C064B040
:105CF800E5C063C823D885D04378F5BCFFF7FFFF1C
:105D08002C9BC378042938CEDFFFBEFFBEFFDEFF21
:105D1800BEFFDEFFDEFFDEFFDEFFDEFFDEFFDEFFB3
:105D2800DEFFDEFFDEFFDEFFDEFFDEFFDEFFDEFF83
:105D3800DEFFDEFFDEFFDEFFDEFFDEFFDEFFDEFF73
:105D4800DEFFDEFFDEFFDEFFDEFFDEFFDEFFDEFF63
:105D5800DEFFDEFFDEFFDEFFDEFFDEFFDEFFDEFF53
:105D6800DEFFDEFFDEFFDEFFDEFFDEFFDEFFDEFF43
:105D7800DEFFDEFFDEFFDEFFDEFFDEFFDEFFDEFF33
:105D8800DEFFDEFFDEFFDEFFDEFFDEFFDEFFDEFF23
:105D9800DEFFDEFFDEFFDEFFDEFFDEFFDEFFDEFF13
:105DA800DEFFDEFFBEFFDEFFDEFFDEFFBEFFBEFF63
:105DB800DEFFFFFFDADEC218C218A210C218C2182E
:105DC800E31841086621149DBDEFFFF7FEFF50B4AC
:105DD800437065A8A7C886C0A6B8E7C825C845D82F
:105DE80086D845C844C865C865C866C866C865C059
:105DF80084B883C843D0C5C86380F0A3FFFFDFFF22
:105E08004982E378042979D6DFFFBEFFDEFFBEFFB3
:105E1800DEFFBEF7DEFFDEFFDEFFDEFFDEFFDEFFBA
:105E2800DEFFDEFFDEFFDEFFDEFFDEFFDEFFDEFF82
:105E3800DEFFDEFFDEFFDEFFDEFFDEFFDEFFDEFF72
:105E4800DEFFDEFFDEFFDEFFDEFFDEFFDEFFDEFF62
:105E5800DEFFDEFFDEFFDEFFDEFFDEFFDEFFDEFF52
:105E6800DEFFDEFFDEFFDEFFDEFFDEFFDEFFDEFF42
:105E7800DEFFDEFFDEFFDEFFDEFFDEFFDEFFDEFF32
:105E8800DEFFDEFFDEFFDEFFDEFFDEFFDEFFDEFF22
:105E9800DEFFDEFFDEFFDEFFDEFFDEFFDEFFDEFF12
:105EA800DEFFDEFFDEFFDEFFDEFFDEFFBEFFBEFF42
:105EB800DEFFDEFF99D6E320E218C318E318A2102C
:105EC80081104D6BBEEFFFF7FFF7DDEFDDEFFEFF53
:105ED80076ED88994488C590E588A480C59885A002
:105EE80085A0A5A0E6A8C6B0C6B8A6B886B865B805
:105EF80064C083C083C8E5C843906B92DFFFFAEEA5
:105F08004469049924293CEFDEFFBEFFBEFFBEFFB3
:105F1800DEFFBEFFDEFFDEFFDEFFDEFFDEFFDEFFB1
:105F2800DEFFDEFFDEFFDEFFDEFFDEFFDEFFDEFF81
:105F3800DEFFDEFFDEFFDEFFDEFFDEFFDEFFDEFF71
:105F4800DEFFDEFFDEFFDEFFDEFFDEFFDEFFDEFF61
:105F5800DEFFDEFFDEFFDEFFDEFFDEFFDEFFDEFF51
:105F6800DEFFDEFFDEFFDEFFDEFFDEFFDEFFDEFF41
:105F7800DEFFDEFFDEFFDEFFDEFFDEFFDEFFDEFF31
:105F8800DEFFDEFFDEFFDEFFDEFFDEFFDEFFDEFF21
:105F9800DEFFDEFFDEFFDEFFDEFFDEFFDEFFDEFF11
:105FA800DEFFDEFFDEFFDEFFDEFFDEFFDEFFBEFF21
:105FB800BEFFBEFFFFFF284A4008E318C218E318D7
:105FC8006D6BCE7BFFFFBFF7BEF7DEF7FEF7DEF7A0
:105FD800DEFF5DFF4A7A002860286020A12840285B
:105FE80041384138625062586370C588E6A0C7B826
:105FF80086C0A5C083C083C0A4B8227834D5AE9B20
:10600800E47822A8C639DEFFBEFFBEFFBEFFBEFF92
:10601800DEFFDEFFDEFFDEFFDEFFDEFFDEFFDEFF90
:10602800DEFFBEFFDEFFDEFFDEFFDEFFDEFFDEFFA0
:10603800DEFFDEFFDEFFDEFFDEFFDEFFDEFFDEFF70
:10604800DEFFDEFFDEFFDEFFDEFFDEFFDEFFDEFF60
:10605800DEFFDEFFDEFFDEFFDEFFDEFFDEFFDEFF50
:10606800DEFFDEFFDEFFDEFFDEFFDEFFDEFFDEFF40
:10607800DEFFDEFFDEFFDEFFDEFFDEFFDEFFDEFF30
:10608800DEFFDEFFDEFFDEFFDEFFDEFFDEFFDEFF20
:10609800DEFFDEFFDEFFDEFFDEFFDEFFDEFFDEFF10
:1060A800DEFFDEFFDEFFDEFFBEFFDEFFDEFFDEFF20
:1060B800BEFFBEF7BEF7BADEC218C218E318C21890
:1060C8002421410876B5FFFF9EFF9EF79DF7DEF776
:1060D800DEF7FFFF78D6A108E10842092101210176
:1060E800E108C118A118811840284138425864783D
:1060F800A598C6B864C044D044D0C5B84270E4700E
:1061080047A901A02C6BFFFF9DF7BEFFDEFFDEFF56
:10611800BEFFDEFFDEFFDEFFDEFFDEFFDEFFBEFFCF
:10612800BEFFBEFFDEFFDEFFDEFFDEFFDEFFDEFFBF
:10613800DEFFDEFFDEFFDEFFDEFFDEFFDEFFDEFF6F
:10614800DEFFDEFFDEFFDEFFDEFFDEFFDEFFDEFF5F
:10615800DEFFDEFFDEFFDEFFDEFFDEFFDEFFDEFF4F
:10616800DEFFDEFFDEFFDEFFDEFFDEFFDEFFDEFF3F
:10617800DEFFDEFFDEFFDEFFDEFFDEFFDEFFDEFF2F
:10618800DEFFDEFFDEFFDEFFDEFFDEFFDEFFDEFF1F
:10619800DEFFDEFFDEFFDEFFDEFFDEFFDEFFDEFF0F
:1061A800DEFFDEFFDEFFBEFFBEFFDEFFDEFFDEFF3F
:1061B800BEFFBEF79DF7FFFF718C2000E318C318E0
:1061C80082108110E7415DF79EFFBFFFBFFFBEFF52
:1061D800BEF7DEF7DEEF8529E21002092201430946
:1061E800E208E318E310E218E218A1184018622840
:1061F80083488480A5C044D043D064C0E7C886B82B
:1062080027B9006854ADDEFFBEF7DEFFDEFFDEFF14
:10621800BEF7DEFFDEFFDEFFDEFFDEFFDEFFBEFFD6
:10622800BEFFBEFFDEFFDEFFDEFFDEFFDEFFDEFFBE
:10623800DEFFDEFFDEFFDEFFDEFFDEFFDEFFDEFF6E
:10624800DEFFDEFFDEFFDEFFDEFFDEFFDEFFDEFF5E
:10625800DEFFDEFFDEFFDEFFDEFFDEFFDEFFDEFF4E
:10626800DEFFDEFFDEFFDEFFDEFFDEFFDEFFDEFF3E
:10627800DEFFDEFFDEFFDEFFDEFFDEFFDEFFDEFF2E
:10628800DEFFDEFFDEFFDEFFDEFFDEFFDEFFDEFF1E
:10629800DEFFDEFFDEFFDEFFDEFFDEFFDEFFDEFF0E
:1062A800DEFFDEFFDEFFBEFFBEFFDEFFDEFFDEFF3E
:1062B800DEFFBEF7DEFF7DEFFEFF28428210C31827
:1062C800C318E31800009194FFFF5DF7BFFFBFFFFD
:1062D800DFFFBEF7BEF7E7414110A218C218A210AF
:1062E800A32083208318A318E218021922090301A6
:1062F800C3182240C5A084B8A4C843C804D866D02F
:10630800A598E4583CEFBEFFDEFFDEFFDEF7DEF7C0
:10631800DEF7DEFFDEFFDEFFDEFFDEFFDEFFBEFFB5
:10632800BEFFBEFFDEFFDEFFDEFFDEFFDEFFDEFFBD
:10633800DEFFDEFFDEFFDEFFDEFFDEFFDEFFDEFF6D
:10634800DEFFDEFFDEFFDEFFDEFFDEFFDEFFDEFF5D
:10635800DEFFDEFFDEFFDEFFDEFFDEFFDEFFDEFF4D
:10636800DEFFDEFFDEFFDEFFDEFFDEFFDEFFDEFF3D
:10637800DEFFDEFFDEFFDEFFDEFFDEFFDEFFDEFF2D
:10638800DEFFDEFFDEFFDEFFDEFFDEFFDEFFDEFF1D
:10639800DEFFDEFFDEFFDEFFDEFFDEFFDEFFDEFF0D
:1063A800DEFFDEFFDEFFDEFFDEFFDEFFDEFFDEFFFD
:1063B800DEFFBEFFBEFFDEFFFFFFBAD6A210C21887
:1063C800A210C318E21044213CE7FFFFBEF79EF776
:1063D800FFF7FFF77DEF65316218C4288320A31803
:1063E800C420C318C528A318A110E108030903098C
:1063F800A41042280148C388E4B084C845D8C6C060
:106408000150CD7BFFFFBEF7DEF7DEFFBEF7DEF7FC
:10641800DEFFDEF7DEFFDEFFDEFFDEFFBEFFBEFFD4
:10642800BEFFBEFFDEFFDEFFDEFFDEFFDEFFDEFFBC
:10643800DEFFDEFFDEFFDEFFDEFFDEFFDEFFDEFF6C
:10644800DEFFDEFFDEFFDEFFDEFFDEFFDEFFDEFF5C
:10645800DEFFDEFFDEFFDEFFDEFFDEFFDEFFDEFF4C
:10646800DEFFDEFFDEFFDEFFDEFFDEFFDEFFDEFF3C
:10647800DEFFDEFFDEFFDEFFDEFFDEFFDEFFDEFF2C
:10648800DEFFDEFFDEFFDEFFDEFFDEFFDEFFDEFF1C
:10649800DEFFDEFFDEFFDEFFDEFFDEFFDEFFDEFF0C
:1064A800DEFFDEFFDEFFDEFFDEFFDEFFDEFFDEFFFC
:1064B800DEFFDEFFBEF7DEFF7DEFFFFF91942000D9
:1064C8000321A210021160002F7CDEF7DEF7FFF730
:1064D800BEE7FFF779C68208C320A3208218E41814
:1064E800A20024098418C31002110211C3186420E1
:1064F8006428A4286128E26003A983C8A5C883800A
:1065080024499CDFFEFFBEF7BEF7DEFFBEF7FEFFA5
:10651800FFFFBEF7DEFFDEFFDEFFDEFFBEFFBEFFD2
:10652800BEFFBEFFDEFFDEFFDEFFDEFFDEFFDEFFBB
:10653800DEFFDEFFDEFFDEFFDEFFDEFFDEFFDEFF6B
:10654800DEFFDEFFDEFFDEFFDEFFDEFFDEFFDEFF5B
:10655800DEFFDEFFDEFFDEFFDEFFDEFFDEFFDEFF4B
:10656800DEFFDEFFDEFFDEFFDEFFDEFFDEFFDEFF3B
:10657800DEFFDEFFDEFFDEFFDEFFDEFFDEFFDEFF2B
:10658800DEFFDEFFDEFFDEFFDEFFDEFFDEFFDEFF1B
:10659800DEFFDEFFDEFFDEFFDEFFDEFFDEFFDEFF0B
:1065A800DEFFDEFFDEFFDEFFDEFFDEFFDEFFDEFFFB
:1065B800DEFFDEFFDEFF9DF7DEFFDEFFBEFF895256
:1065C80020080321C218C10823197CEFDFFF9EF7BA
:1065D800BEEFFFF78E6382002411C308C320612039
:1065E800A220E218C31882208220C218E210A2203A
:1065F800A220E2080101835048C807D8E798E220A2
:1066080016B6DEFFBEF7BEFFDEFFDEFFBEFFBEFF33
:10661800BEFFDEFFDEFFDEFFDEFFDEFFDEFFDEFFAA
:10662800DEFFDEFFDEFFDEFFDEFFDEFFDEFFDEFF7A
:10663800DEFFDEFFDEFFDEFFDEFFDEFFDEFFDEFF6A
:10664800DEFFDEFFDEFFDEFFDEFFDEFFDEFFDEFF5A
:10665800DEFFDEFFDEFFDEFFDEFFDEFFDEFFDEFF4A
:10666800DEFFDEFFDEFFDEFFDEFFDEFFDEFFDEFF3A
:10667800DEFFDEFFDEFFDEFFDEFFDEFFDEFFDEFF2A
:10668800DEFFDEFFDEFFDEFFDEFFDEFFDEFFDEFF1A
:10669800DEFFDEFFDEFFDEFFDEFFDEFFDEFFDEFF0A
:1066A800DEFFDEFFDEFFDEFFDEFFDEFFDEFFDEFFFA
:1066B800DEFFDEFFDEFF9DF7DEFFDEFFDEFF58CEEA
:1066C8000321A2102311C21841105094DFFF7EFF4E
:1066D800DFFF19CEC41883106218C428A218031942
:1066E800C110C220E210C320C320E318E210A22088
:1066F800A220E20842096230E8A805A04358D5B5AF
:10670800FEF77DFFBEF7BEFFDEFFDEFFBEFFBEFF6A
:10671800BEFFDEFFDEFFDEFFDEFFDEFFDEFFDEFFA9
:10672800DEFFDEFFDEFFDEFFDEFFDEFFDEFFDEFF79
:10673800DEFFDEFFDEFFDEFFDEFFDEFFDEFFDEFF69
:10674800DEFFDEFFDEFFDEFFDEFFDEFFDEFFDEFF59
:10675800DEFFDEFFDEFFDEFFDEFFDEFFDEFFDEFF49
:10676800DEFFDEFFDEFFDEFFDEFFDEFFDEFFDEFF39
:10677800DEFFDEFFDEFFDEFFDEFFDEFFDEFFDEFF29
:10678800DEFFDEFFDEFFDEFFDEFFDEFFDEFFDEFF19
:10679800DEFFDEFFDEFFDEFFDEFFDEFFDEFFDEFF09
:1067A800DEFFDEFFDEFFDEFFDEFFDEFFDEFFDEFFF9
:1067B800DEFFDEFFBEFFBEF7DEFFBEF7BEF7FFFF60
:1067C800719420000201E32042208641BEFFBFFFF2
:1067D800BBF645396108E418C4304328042102098E
:1067E800E208A218E200E310A210A208E218822030
:1067F800622023190201811847714B9ABAF6FEF7F5
:10680800FDEF9DFFBEF7BEFFDEFFDEFFDEFFBEFF32
:10681800BEFFDEFFDEFFDEFFDEFFDEFFDEFFDEFFA8
:10682800DEFFDEFFDEFFDEFFDEFFDEFFDEFFDEFF78
